:020000040800F2
:10000000D02C002099020008F13D0008153D0008A1
:1000100000000000000000000000000000000000E0
:100020000000000000000000000000007B3F00080E
:100030000000000000000000793F00087D3F00083C
:10004000AB020008AB020008AB020008AB020008DC
:10005000AB020008AB020008AB020008AB020008CC
:1000600000000000AB020008AB020008AB02000871
:10007000AB020008AB020008AB020008AB020008AC
:10008000AB020008AB020008BD4000080000000001
:10009000AB020008AB020008AB020008AB0200088C
:1000A000AB020008AB020008AB020008ED490008F3
:1000B000AB020008AB0200080000000000000000D6
:1000C00000F002F800F0BDF80CA030C80838241881
:1000D0002D18A246671EAB4654465D46AC4201D180
:1000E00000F0AFF87E460F3E0FCCB64601263342F5
:1000F00000D0FB1AA246AB4633431847845A00008F
:10010000A45A0000103A02D378C878C1FAD852072E
:1001100001D330C830C101D504680C6070470000BD
:100120000023002400250026103A01D378C1FBD813
:10013000520700D330C100D50B60704710B56E294F
:1001400002D101F029F910BD702902D101F097FC0C
:1001500010BD662902D105F045FC10BD652902D10C
:1001600005F040FC10BD672902D105F03BFC10BD35
:10017000612902D1C046C04610BD03681B0A01D3E5
:1001800080231943692902D100F0EEF810BD6429DB
:1001900002D100F0E9F810BD752902D100F0E4F8B1
:1001A00010BD6F2902D101F015FC10BD782902D1D4
:1001B00001F052FC10BDE92902D101F0B1FB10BDE4
:1001C000E42902D101F0ACFB10BDF52902D101F008
:1001D000A7FB10BDEF2902D101F008FC10BDF829E2
:1001E00002D101F047FC10BD0368DB0901D3802375
:1001F0001943632902D101F015FB10BD732902D107
:1002000001F018FB10BDE32902D101F032FD10BD51
:10021000F32902D101F035FD10BD002010BD1FB53E
:1002200001F096FC04000020002105F091FB401C29
:1002300060600020002105F075FBE0601FBD10B577
:1002400010BD02F025F81146FFF7E9FF04F054FF56
:1002500002F046F803B4FFF7F2FF03BC04F0FDFD23
:1002600070B505460C46164602E00FCC0FC5103E91
:10027000102EFAD2082E02D303CC03C5083E042E5A
:1002800007D301CC01C5361F03E021782970641C17
:100290006D1C761EF9D270BD07488047074800479D
:1002A000FEE7FEE7FEE7FEE7FEE7FEE70448054956
:1002B000054A064B7047000055400008C100000881
:1002C000D0260020D02C0020D0280020D0280020CC
:1002D000704700001CB50C46064B7B4469460090F5
:1002E000204601F07CFA04460020694601F08AFAB3
:1002F00020461CBD271500000FB4054910B503AA00
:10030000029801F09BFA10BC08BC04B0184700002A
:100310000C00002070B50C460546012A05D028784F
:10032000800600D5EA69002302E0012305E05B1C9A
:10033000934202D2E05C0028F9D1A869E618C01AFD
:10034000A861286AC0182862284600F094FF04E0DB
:100350006A682078A968641C9047B442F8D328469C
:1003600000F09FFF70BD0000F7B5002575291068EB
:10037000009914A611D000F0A5FF002802DA40422F
:1003800011A608E0009909688A0701D50FA602E0C6
:10039000490704D50EA6012501E000F09CFF009F4F
:1003A0000024243704E001F077FB30313955641C18
:1003B0000028F8D12B4632462146009800F094FFE1
:1003C000FEBD0000000000002D0000002B0000001A
:1003D00020000000F3B50446002081B020622046D2
:1003E000E1688847002872D0252802D06268A16899
:1003F000ABE0594F00267F442046E168884720281B
:10040000054608DB312D06D27819203800780028FF
:1004100001D00643F0E7B00701D504208643002051
:10042000E0610746A0612A2D0AD0284604F00EFD9F
:10043000002827D0B8000019303D0090856119E0F0
:100440000298BA00121902C8916102902046E16830
:100450008847012F054617D1E06900281FDA2020C0
:1004600086431CE000980A2180694843009940199E
:10047000303888612046E1688847054604F0E6FC8C
:100480000028EFD1012F0AD02E2D08D12046E16897
:1004900088470546202006437F1C022FC3DBA06946
:1004A000002803DA4042A06101200643F00701D092
:1004B000102086436C2D0BD0682D09D04C2D3CD0DC
:1004C0006A2D38D0742D38D07A2D36D016E040E021
:1004D000E1682F4620468847B842054609D16C2F6F
:1004E00029D001208002E16806432046884705465E
:1004F00004E06C2F1DD0FF2001300643002D28D0D2
:1005000028464138192803D80120C0020643203567
:10051000204626602946029A1646FFF70FFE00285D
:1005200010D001280BD0F61DF008C0000830029052
:1005300055E74020E1E78020D5E70020D3E7361DCE
:1005400002964CE762682846A1689047206A401CE2
:1005500044E7206AFEBD00002756000030B505467E
:100560000B462A461C781078521C5B1C002801D0D0
:10057000A042F7D0002C03D0002802D06D1CEFE77A
:10058000284630BD30B5441C03E00178401C0029EA
:100590000DD08107F9D10B4BDD0104C8D11A91436D
:1005A0002940FAD0001B0A0603D0C01E30BD001B34
:1005B00030BD0A0401D0801E30BD0902FCD0401EAF
:1005C00030BD00000101010101E004C0091F042940
:1005D000FBD28B0701D50280801CC90700D00270B6
:1005E000704700290BD0C30702D00270401C491E7F
:1005F000022904D3830702D50280801C891EE3E709
:100600000022EEE70022DFE7002203098B422CD311
:10061000030A8B4211D300239C464EE003460B4352
:100620003CD4002243088B4231D303098B421CD3B4
:10063000030A8B4201D394463FE0C3098B4201D3A6
:10064000CB01C01A524183098B4201D38B01C01ADE
:10065000524143098B4201D34B01C01A5241030955
:100660008B4201D30B01C01A5241C3088B4201D304
:10067000CB00C01A524183088B4201D38B00C01AB1
:10068000524143088B4201D34B00C01A5241411AD8
:1006900000D201465241104670475DE0CA0F00D0BB
:1006A0004942031000D34042534000229C460309B4
:1006B0008B422DD3030A8B4212D3FC22890112BA3A
:1006C000030A8B420CD3890192118B4208D3890112
:1006D00092118B4204D389013AD0921100E089092A
:1006E000C3098B4201D3CB01C01A524183098B420B
:1006F00001D38B01C01A524143098B4201D34B01F4
:10070000C01A524103098B4201D30B01C01A524156
:10071000C3088B4201D3CB00C01A524183088B42DD
:1007200001D38B00C01A5241D9D243088B4201D366
:100730004B00C01A5241411A00D201466346524151
:100740005B10104601D34042002B00D54942704750
:1007500063465B1000D3404201B50020C046C0464E
:1007600002BD704770477047F0B50C46871A9C4130
:100770000D46861A9D4103D2C01BA141D219634187
:100780000D0D1F0DC94EEC1BAE435CD07F057F0DD8
:100790000026002F51D02D05AC46A943DD020123D0
:1007A000ED0A1B051D4320231B1B24D41746E740DD
:1007B000381871412F46E740CC199D402818314622
:1007C00061410C0D27D161449A4013D50023401C90
:1007D000594152000ED14008400001224B00520501
:1007E000D34207D305204007C14201D5B04900E0FC
:1007F000B0493046F0BD6B00002A00D001229A18A3
:100800001F23203C1B1B01D5002302E0E5402818D4
:1008100071410C0DD7D0012424050919C407CD0757
:1008200040084908E40F28436144002CD5D0002437
:10083000401C61419A40D0D1CDE76A05520DD9D113
:10084000C90FC907D5E79C4D4E00002801D00124EF
:1008500000E0002434195F00002A01D0012600E0E6
:100860000026BE19954FAC420CD8AE420AD8B4420D
:1008700006D001256D05EC42BCD010461946F0BDEE
:100880009942FCD000203946F0BDF0B51FB40C46AB
:100890000F46811A9F412546861A9D4106D20125A1
:1008A000ED076F40401ABC4152187B41210D1E0DCF
:1008B0008D1BAC467D4D8D437ED075056D0D7CD076
:1008C0000D05AE46AC431B031B0B794D52429D41B7
:1008D000202366469B1B14D31746F7403818002682
:1008E0000090744160462F460741E41900989D40EE
:1008F0002818664116D4714671189A4025D50123EF
:1009000020E093182A466A415200002B00D0521C66
:100910001E23203E9B1B002B61DD3541EE1728185E
:100920006641E8D5001876415B1C9A4000D3401C14
:100930004B05F3181524E34010D3002B52D0714619
:100940007118D30FC01802D3491C05B0F0BD0123A4
:10095000DB079A42F9D140084000F6E70122520530
:10096000B21801D1002853D00123CC0ADB029943ED
:10097000891E002A08D1020C03D0020C0004103991
:1009800002E00246002020390023550B05D1120257
:100990000823550B01D152010D23550C01D1120131
:1009A0001B1DD50C01D192009B1C150D01D15200CD
:1009B0005B1C2025EE1A01E02CE022E00546F54004
:1009C00015439840CA1AE10769181305C918002A87
:1009D000BBDA032040070818C10FC9070FE07146B2
:1009E0006118B2E7F10740080843711071444A00EA
:1009F0000CD001235B059A42A7D2C90FC90700207A
:100A0000A3E74905490D26D1002001E00028F4D1D3
:100A100000219AE7284D6600002801D0012100E05E
:100A2000002171185F00002A01D0012600E0002695
:100A3000BE19224FA94210D8AE420ED8B14208D0FA
:100A400001256D05E94206D01946A802414010462D
:100A50007BE79C4201D0214677E70020394674E7C6
:100A600010B50C465C4005D50124E4076340FFF750
:100A70000CFF10BDFFF778FE10BD30B40C465C4093
:100A800004D50124E407634030BC6DE630BCFCE6CD
:100A900070B50124E40761400D465D4002D4FFF7C4
:100AA00063FE70BD6340FFF7F0FE70BDFF070000FE
:100AB0000000F0FF0000F07F0000E0FF0000F87F82
:100AC000F0B5F94D0C091E092C402E402F468BB075
:100AD000A7437DD0B543FCD0002E7AD0002CFCD0AB
:100AE0000D465D40ED0F2543AC1BFF25AD04641999
:100AF0000894C502440DC9022143500DDC02044391
:100B00000120C00701430443D2020191200C110CC3
:100B100000958C46010423468B430A9161460904E3
:100B2000E24D8A430991010A7D44491980390978C7
:100B300005464D4301266D18F605751B6943C90C22
:100B4000640B891C4C436418B5012C1B250C2E0426
:100B5000B4434C434D43210C691889090591009D0C
:100B6000E90701D00121C90704912C4601996708C2
:100B7000CD072F434C08059DE10B4D432D0C294615
:100B80006646754302950D4645432E46029D7D1BE4
:100B9000B44100950D465D4301942C0C2F040D4685
:100BA0005543AE462D0C3D43029503947546049C77
:100BB0002D04641B049406D2029C039D641C002631
:100BC00075410395029401AC70CC009F7D1B01E040
:100BD0003EE162E1B4410904009507910194059951
:100BE000A4086143090C0C464443650BE7040C461A
:100BF00066467443A646640B3C43039502947446D0
:100C0000049DE4042C1B049406D2029C039D641CE6
:100C1000002675410395029401AC70CC009F7D1BAA
:100C2000B44101940C465C430095650FE7000C4607
:100C30005443A646640F3C43039502947446049DB6
:100C4000E4002C1B049406D2029C039D641C002625
:100C500075410395029401AC70CC009F7D1BB4419B
:100C6000AE09AF06049DC900AD092F43049DA4063B
:100C7000AD060495079D344369180791059DE10B66
:100C80004D432D0C29466646754302950D46454356
:100C90002E46029D7D1BB44100950D465D43019497
:100CA0002C0C2F040D465543AE462D0C3D430295AA
:100CB00003947546049C2D04641B049406D2029C84
:100CC000039D641C002675410395029401AC70CC11
:100CD000009F7D1BB44101948C050694079C890AF2
:100CE000611800950791019C0599A4086143090CBE
:100CF0000D464543680BEF040D46644665436C0B97
:100D00003C43049FED047D1BAC4602D20025641CCD
:100D10006841009E019D371B854108465843019557
:100D20000C46460FC5005443600F28436546E40057
:100D30002C1B02D20025401C6E41019D3F1AB5417B
:100D40002846BD09800628438446A009BF064E02F6
:100D50000699A40676180743079D002068410A9962
:100D6000079019430020099B00906046FF19134328
:100D70004041E20F64003A43A4460446D71A8C412E
:100D8000A04203D90120009020463A46C70F94188C
:100D900040416246D20F2243644664000494009CA2
:100DA000BE466400D71AA446044602978C41774693
:100DB000002F01D1A04204D96046401C8446029A0B
:100DC0002046C40FA64694184041049A0546D20F07
:100DD000224364466400D31A8D417146002901D133
:100DE000A84202D928461A46641C10430122002852
:100DF00000D0164361020020079B891904465C411C
:100E00000223002C02DB491813466441089DCE0AD8
:100E10002D145D194B056705E10A2C050D1908997C
:100E20003E43C9076940002B08D0934006D30022F7
:100E3000761C5141002B01D1760876001C4A002D0A
:100E400043DB154241D0AA433FD030460BB0F0BD42
:100E500006180D464D41174C7642AC411AD39518F1
:100E60001C465C41134A6D42A24113D30122520534
:100E70004C00D4420AD15C00D4420BD04B4002D586
:100E800092021143E2E749004908DFE75940C90FE0
:100E9000C90718E000200849D8E7054801420DD1EC
:100EA0000342F7D0F2E700000000FF07064F000002
:100EB0000000F07F0000E0FF0000F87F114859407B
:100EC0000143C01241400020C0E70123089A9B065D
:100ED0009A4205DC032252078918C90FC907B5E7F2
:100EE000052252078918074A1143D2125140ADE733
:100EF00070B515461C4602460B4628462146FFF7AC
:100F0000DFFD70BDFFFFFF7F0346CA02400D10B535
:100F100010430A1504D00124E4072043002A05DB0E
:100F20000A4CA21A04D4D040FF2A00DD002010BDD4
:100F30004A00002B01D0012000E0002010180122FF
:100F40005205D042F2D8C817C04310BD1E0400009D
:100F50001F22030C02D10F22000402D0030E03D083
:100F600004E00020014670470002083A030F01D157
:100F70000001121F830F01D18000921E002801DBA7
:100F80004000521E120551184205C0124118104669
:100F90007047C10FC90700D0404201229207114398
:100FA000D6E701218907D3E710B50B1E01D0202316
:100FB00001E0011E2BD00C0C01D10904103B0C0EDA
:100FC00001D10902083B0C0F01D109011B1F8C0F35
:100FD00001D189009B1E002901DB49005B1E0446EC
:100FE000DC4021431C05A4182022D21A90404B0556
:100FF000C20AC90A1A430919830501D143081840D6
:101000001623984002D30020521C4141104610BDC7
:10101000CA0FD20703D00B46002140429941024B30
:101020001A43C1E7004ABFE70000D041F0B58B4C3E
:101030000F09254689B0BD437BD01D092646AE4326
:10104000FAD00E465E402740F60F3E43254071D051
:1010500024012142FBD0FF24AD19A4042D1B0395CC
:1010600001252D05DB02DB0AC9022B43C90A2943EE
:101070001E010901040F130F050121431701880BFD
:10108000820391432D098C46A90B1E438A03954385
:10109000B30B9A0396433F09BA0B9403A7430296F6
:1010A0002E467E430497B6464E19D7190C46019634
:1010B000544305977E43371B7646BF1B3601B64621
:1010C000BE0B361900967646BC043719009C01D336
:1010D000641C00946400002F01D001263443029E5A
:1010E000049F754366467E430496760034196E006D
:1010F00034190094029C019E1C196643751BAE4670
:10110000069465464519059C05956C4359437546FB
:101110000891691A0191049E01465143A41B049150
:10112000611A009C0791E10605D061090122114373
:1011300002E072E06EE06109089D00272C0A2D068E
:101140006918049D7C412A0A2D066918019D624197
:10115000AC0DAD026D185441079A910D92025519CC
:101160006141029A644658435443069B059A5A4388
:10117000121A131B9A0E9B015B187A41010B000592
:10118000C3185141220A200644195A419A4200D2FA
:10119000491C01204002814203D315230226F64355
:1011A00002E014230326F6432020C51AA94017465F
:1011B000AF40DA400A4320460399D8400914731817
:1011C00019055118039A3843D2075140AC4009D051
:1011D0000122944006D30022401C5141002C01D131
:1011E000400840001E4A934212D3012203989206FF
:1011F000904207DB0520400709181A480143C01236
:10120000414004E0032040070818C10FC90700202F
:1012100009B0F0BD0020F107FAE705180C464C4173
:1012200011486D42A04115D394181A465A410E48F0
:10123000644290410ED301204A004005824209D306
:101240005A00824206D35940C90F084AC9070020F4
:101250001143DDE700200649DAE700000000FF0740
:10126000FE070000FFFFFF7F0000E0FF0000F07FAF
:101270000000F87F704770B5044685690068C106B4
:1012800001D5302600E02026C00707D070BD626877
:101290003046A1689047206A401C20626D1EF6D53A
:1012A00070BD70B5044685690078C00707D170BD70
:1012B0006268A16820209047206A401C20626D1E51
:1012C000F6D570BD09684A0501D540B27047C90519
:1012D000FCD500B2704709684A0501D5C0B2704715
:1012E000C905FCD580B27047FFB504460D4681B0F4
:1012F000243000902168880604D51022E0699143CB
:10130000216000E00120A84201DD471B00E000272A
:101310000498A1697A191018081AA0612078C006EB
:1013200002D42046FFF7A7FF002608E00398626872
:10133000A168805D9047206A401C761C206204985A
:101340008642F3DB2078C0060AD52046FFF793FFDC
:1013500006E06268A16830209047206A401C206245
:1013600038467F1E0028F4DC07E000986268A16818
:10137000405D9047206A401C206228466D1E002870
:10138000F3DC2046FFF78DFF2078000602D502200F
:1013900005B0F0BD0120FBE711680268006A530543
:1013A00001D5087009E0D30501D5088005E01306D2
:1013B00002D5C21705C100E0086001207047000097
:1013C0007047FFB50C461E468FB003CA08900991BE
:1013D0004F007D0D00D16D1E002108460020C04643
:1013E0000321099A89050840002A03DA820080183F
:1013F00040080840800D01280A9002DD0020C0430B
:101400000A90089807430DD0EF48F0492818484340
:101410000714189800281DD07542291E1DDD0A9852
:1014200042421BE01898012802D00020302104E03D
:101430000020F24305E02154401CB042FBDB304663
:101440000022189B002121540F998B600A6048608C
:1014500013B0F0BDBD1B6D1CDFE70A9A002900DA4E
:1014600069420BA800F012FC0BAB07CB03AB07C320
:101470000899099800F06EFC6B4607C30146D448F2
:101480000918002D00910ADDD14903980A9A4942B2
:10149000401803A90390684600F081FE07E0039915
:1014A0000A9A081803A90390684600F04EFE6B469E
:1014B00007C30004000C03D00020C043410800E033
:1014C0001046189A002A03D00022009215461EE00A
:1014D000751E05D400F040FB303262556D1EF9D503
:1014E00001220843079602D000227F1C04E02078E6
:1014F000302801D100227F1E002A069789D01EE0E5
:10150000112D07DA00F028FB303262556D1C0246BF
:101510000A43F5D1084303D00098002819D00EE003
:101520000021681E05E0235C625C63542254401E67
:10153000491C8142F7DBA81B401E07950690079ABD
:1015400018990020A0540F98079B069A81600CC040
:101550007EE71126002018905BE7D21DF0B50D46FE
:101560000446D10893B0C90003C90C900D9103F053
:1015700057FC02460D98C00F01D02D2007E02068CF
:10158000810701D52B2002E04007C00F4001032A4C
:101590000F9001D0072A05DB03462946204600F0BC
:1015A00019FB0EE12078800601D5E76900E00627E7
:1015B0002846652D04D0662814D0672D69D12DE00A
:1015C0000020112F009001DB112300E07B1C0CAAEE
:1015D00003A910A8FFF7F5FE1199002610987D1CAD
:1015E0000E9142E001203B460CAAC0070B9001205F
:1015F000009003A910A8FFF7E4FE119D129810991E
:10160000002600280E9501D1781C0D18781B02D4F5
:1016100046427D1C761EE81B00903AE0012F00DA5E
:1016200001270020112F009001DD112300E03B462F
:101630000CAA03A910A8FFF7C4FE11993D46109803
:1016400000260E91217809070BD40E99A94200DAE1
:101650000D4603A9012D04DD4A19203AD27F302A14
:1016600006D0B84201DA011D04DA012100910FE031
:101670006D1EEFE7002802DC86192D1A03E0411CDD
:10168000A94200DD0D46801B401C00900120C007D0
:101690000B902078000705D40098A84202DB0020B8
:1016A000C043009069460020C8720B98012102AF28
:1016B0000337C907884225D0022010902B201190B3
:1016C0000B9800280BDA40420B902D20119006E079
:1016D0000B9800F0E1F930317F1E0B9039701099B2
:1016E000481E00291090F3DC0B980028F0D11198C7
:1016F0007F1E38702088000501D5452000E0652058
:101700007F1E387001A8C01BC01D0B900F980028C9
:1017100000D0012041190098C01709180B9808182B
:10172000A169081A401EA0612078C00602D4204694
:10173000FFF7A1FD0F98002805D06268A1689047C7
:10174000206A401C20622078C00625D52046FFF77D
:1017500092FD21E0002E07DB0E98B04204DD03A8C5
:101760006268805DA16802E06268A16830209047ED
:10177000206A761C401C20620098401E00280090C1
:101780000AD100F0E5F9C06862680168405CA168B0
:101790009047206A401C206228466D1E0028D9DC34
:1017A00007E062683878A1687F1C9047206A401C77
:1017B00020620B99481E00290B90F2DC2046FFF7AF
:1017C00070FD032044E6000001FCFFFF104D000007
:1017D000E1DFFFFF01694A1C02610878704700B52C
:1017E0008FB002910021059105490193794403913D
:1017F000114604906846FEF7EDFD0FB000BD0000F5
:10180000E5FFFFFF0A681070521C0A60704710B5B0
:101810004369002B02D0C046C04601E0FEF77AFDC6
:10182000012010BD1278014624310A7000224A704E
:101830000122ECE711680022D243E8E7084B70B5BB
:101840000D467B44FFF7CBFF0446284600F0D6FC4C
:10185000002802D00020C04370BD204670BD0000AB
:1018600097380000F7B50446154686B02B487844F3
:10187000002703C83E460090019111E007986A4690
:101880007100415A02A800F0BDFC411C07D021782C
:10189000890603D5E269391891420ED83F18761CA3
:1018A0002078800602D5E069B84206DDAE42E5DB6D
:1018B00007987100405A0028E0D1A069C01BA061C0
:1018C0002046FFF7D8FC154878445A3803C80090E2
:1018D0000020019116E041006A460798415A02A88B
:1018E00000F090FC0590401C0AD0002505E06268DD
:1018F00002A8A168405D90476D1C05988542F6D30B
:101900000498401CB0420490E5DB206AC0192062B4
:101910002046FFF7C6FC09B0F0BD000042420000BF
:10192000F7B5D21D0025D20815A6D200F52905CAA3
:1019300011D0002A05DA00214042914111A60A4641
:1019400008E0009909688B0701D50FA602E0490756
:1019500001D50EA601251146009F0024243704E07E
:1019600000F0FAF830323A55641C02460A43F7D1C7
:101970002B46324621460098FFF7B6FCFEBD00001C
:10198000000000002D0000002B00000020000000DF
:1019900070B504460021243408E05507D2086D0FC5
:1019A000303565545D072A43DB08491C15461D4345
:1019B000F3D10468002310A2250708D520252C4068
:1019C0000C4304D0C46901230CA2641EC461FFF758
:1019D0008BFC70BD10B5044621461068FFF77BFCF8
:1019E000002302462046FFF7D3FF10BDD21DD108C9
:1019F000C9000CC9CCE70000000000003000000066
:101A0000F8B50F460188090502D5224C7C4402E056
:101A1000204C7C440E3405460021243508E016078E
:101A20001209360FA65D6E541E0732431B09491C6E
:101A300016461E43F3D1224604780023240705D519
:101A4000702F06D0002901D002231132FFF74CFC81
:101A5000F8BD01231032F9E770B504460D46214662
:101A60001068FFF738FC0023024629462046FFF79E
:101A7000C7FF70BDD21DD308DB000CCBC0E730B46C
:101A8000036820241268234303600823C36130BC29
:101A90000023B5E7AC40000001468008081A02099F
:101AA0001018020A1018020C1018C0088200121830
:101AB0005200891A01E0401C0A390A29FBD27047FA
:101AC000F8B5224C4E00069DA6420AD8A64201D186
:101AD000002806D15E00A64203D8A6420AD1002AF9
:101AE00008D00D24240425422CD02946002000F0E3
:101AF000A9FBF8BD0C461C430CD4994202D0EFF36D
:101B00000080F8BD904202D0EFF30080F8BDEFF303
:101B10000080F8BD09242407E5008B4206D0EFF3CE
:101B20000080A043591A06D2284304E0101A05D3B6
:101B3000EFF30080A04380F30088F8BDEFF300804E
:101B4000A043F1E7009500F095FBF8BD0000E0FF31
:101B500000487047902600200B4670B50246890762
:101B60008008084319469D08141AA9412509080749
:101B7000054308092C194841250A01060D43010AAD
:101B80002C194141200C0D0428430D0C00194D4126
:101B9000002140194D41C00869070843E908840F36
:101BA0008D002543840024184D4124196D41121BDA
:101BB000AB4107E00925ED432C1152196341002484
:101BC000401C61411C460A250026551BB441F1D238
:101BD00070BD0000F8B51F46044601230068DB0213
:101BE000032601461840072A05DB002801D017A567
:101BF00006E017A504E0002801D016A500E016A510
:101C0000102081432160A069C01E002FA06101D077
:101C1000401EA0612046FFF72EFB002F09D038465A
:101C20006268A1689047206A401C2062C01C206244
:101C300006E0206AFAE762682878A1686D1C904780
:101C4000761EF8D22046FFF72CFBF8BD4E414E0021
:101C50006E616E00494E4600696E660010B54369BC
:101C6000002B02D0C046C04601E0FFF7FBFD01207B
:101C700010BD12880146243182840022C2840122D0
:101C8000ECE711680022D243E8E70000F7B51646FA
:101C90008AB02F4878446C4603467C33C06F5A683C
:101CA0009B680DC42A487844763003AC0DC80DC437
:101CB0003720C001081837211B30FEF7AFFC05465E
:101CC0000C46803D1B3C02D56442012000E0002010
:101CD000002709900FE0E0070BD00C201C49784347
:101CE000794432464C394118684600F02EFA6B466A
:101CF00007C364107F1C002CEDD1154F7F442C3F8F
:101D000015E0E80711D02001C0190EC8069108930C
:101D100007920068F04201D198190890324606A94E
:101D200003A800F012FA03AB07C36D10641C002D6A
:101D3000E7D1324669460998002803A802D000F08E
:101D40002EFA01E000F001FA0A9B07C30DB0F0BDC6
:101D50004C3E0000034640000A4610B5400D0BD033
:101D60000121C9070F24A40200191C0364082143A0
:101D7000540D2143D20207E000210120F2E7D40FE5
:101D8000490021435200401E0029F8DADB0FDB072F
:101D9000184310BDFFB50D46144685B0486851681C
:101DA00003F018F800910190A868A16803F012F8F8
:101DB00002910390A868616803F00CF8029A121867
:101DC0008242029201D2012000E00020019A0B1809
:101DD000D2180028019202D08A4202D903E08A4236
:101DE00001D2012000E000200099081800906868E6
:101DF000A16802F0EFFF029A12188242029201D209
:101E0000012000E00020019A0B18D218002801924E
:101E100002D08A4202D903E08A4201D2012000E0C6
:101E200000200099081800902868216840004900A7
:101E3000400849084018EE49471814E0019940004D
:101E4000C90F08430090019802994000C90F084348
:101E50000190029803994000C90F0843029003982B
:101E600040007F1E039000980028E7DA08980028B9
:101E700001D0E04E00E00026B74228DAF71BF80652
:101E8000C00E15D0029B2021091A039A8B401A43D9
:101E90000392029A019BC2408B401A430292019A1C
:101EA000009BC2408B4000991A430192C1400091AF
:101EB0007A110BD06B460320811A01D5002101E075
:101EC000890059588700401ED951F5D537460398E7
:101ED0000299002800D001200143089802910028AF
:101EE00008460CD0002800D001200199019A49052C
:101EF00008430121D20AC902D202019200E0012165
:101F00000E9B0122D207012B02D0002B03D013E03D
:101F1000002807D116E0904204D890420CD1019BD2
:101F20000B4209D0019B5918019105D10099491C18
:101F3000009101D17F1C0092002803D01021084697
:101F40000020C04628682168019B009A4840C10FC4
:101F50000598C90739430EC009B0F0BDFFB587B079
:101F6000099A089808995368926840688968964663
:101F70000022039317469446089A12685300099A60
:101F80005B081268520052089A1A9B4BD4180A9A9E
:101F9000002A01D0352200E04022069200220123CF
:101FA00015460492DB07059324E0002D05D1754604
:101FB0000346039E4D1BB34109D375466646039BFA
:101FC000491B049D9841059B7519AC465F416346CA
:101FD0003B4308D0059B049EDD0776082E435B0833
:101FE0000496059301E0521E641EC50FED074918C3
:101FF0004041521C069B9A42D7DB002D04D1754606
:10200000039A6B1A824101D203200CE0039A0B461B
:102010006B404240134303D0014303D0012002E050
:10202000022000E00020614601910021009702910A
:102030000A99002905D06146400201436D4B019188
:1020400002E08007002302909C423ADA1A1BD00675
:10205000C00E15D0029D2021019C091AC5408C405C
:102060002543029C8C4000D001242543019C02950D
:102070003D46C4408D4039462C43C14001940091F7
:1020800054111DD06D460221002202290CD10320DB
:10209000001B07E0002804DB8600AE59002E00D0AC
:1020A0000122401C0328F5DB081B02D588002A50BA
:1020B00004E08000285810438A00A850491EE3D548
:1020C0001C460A98002802980CD0002800D0012055
:1020D0000199019A490508430121D20AC902D20295
:1020E000019200E00121109B0122D207012B02D0B6
:1020F000002B03D013E0002807D116E0904204D84B
:1021000090420CD1019B0B4209D0019B59180191BF
:1021100005D10099491C009101D1641C009200284E
:1021200003D0102108460020C04608980999019A5A
:102130000068096848400099C30F0798DB072343EC
:102140000360826041600BB0F0BD1FB500230092B8
:102150000A46014601A8FFF71DFE01AB07CB04B0FC
:1021600010BD1FB5012300920A46014601A8FFF7E2
:1021700011FE01AB0F2407CBA402C30F4000DB0705
:102180004008001B002900DB002049000005490829
:10219000CC0A204349051843D20A1143DFE71FB593
:1021A000002300920A46014601A8FFF7D7FE01ABC3
:1021B00007CBD4E71FB5012300920A46014601A8C8
:1021C000FFF7CCFE01AB0F2407CBA402C30F4000E6
:1021D000DB074008001B002900DB00204900000548
:1021E0004908CC0A204349051843D20A1143B6E7EF
:1021F00002C0FFFF013C0000FF3F0000C0688021DB
:102200000840704770B516460C46054600F060F869
:102210000368FF200230C05C012807D0FF2C0ED8D5
:10222000185D00280BD001202C7070BDFF333246A2
:10223000214608331868C3182846984770BD002007
:10224000C04370BDC80212D54803400F002804D017
:10225000C803C043012188407047EFF300800001AC
:10226000000903210907084380F300887047002014
:102270007047000010B500200249029A00F07CF877
:1022800010BD00000000F87F004870477026002055
:102290007546FFF7F9FFAE46050069465346C0088C
:1022A000C000854618B020B5FEF700F860BC0027D6
:1022B0004908B6460026C0C5C0C5C0C5C0C5C0C512
:1022C000C0C5C0C5C0C5403D49008D46704700002F
:1022D00010B5FFF73DFC001D10BD00BF75360000B6
:1022E00010B50446C046C0462046FDF7B3FF10BDFA
:1022F000024670B50A4392072AD11E4DEE0104C86A
:1023000008C9541B9443344017D0D0B2D9B2401AF4
:102310002106014310D190B299B2401A2104014321
:102320000AD110021902000A090A401A21020143C7
:1023300002D1100E190E401A70BD9A42DFD010BAA9
:1023400019BA884201D9012070BD0020C04370BD78
:1023500002780B78401C491C002A09D09A4207D108
:1023600002780B78401C491C002A01D09A42EFD019
:10237000D01A70BD0101010110B50C461107090FFB
:10238000092904D00A290AD008290CD104E01146F1
:102390000820FFF757FF06E0510606D501E0510679
:1023A00001D50120C007214610BDD10607D5010186
:1023B0000909CC084907000E0006044309E0410F53
:1023C00020024907000A0143200E00061D22D141C8
:1023D00001430846E7E7000038B5044607490848C6
:1023E0000068FEF711F96043009002E00098401E7B
:1023F000009000980028F9D138BD000040420F003D
:102400000000002070B50446002520688068800721
:10241000800F012807D120680068C007C00F00287E
:1024200001D0012000E00020002839D12068806818
:102430001C490840002801D1012000E000200028AC
:1024400009D1A06D10210843A065E06D012108436A
:10245000E065012070BD2068806801210843216883
:1024600088600120FFF7B8FF00F00EFC05460EE083
:1024700000F00AFC401B0A2809D9A06D102108436E
:10248000A065E06D01210843E0650120E2E72068D6
:102490000068C007C00F0121484048400028E7D02D
:1024A0000020D7E71700008010B501214903084834
:1024B00000F0DAFB002806D101210520000700F01A
:1024C000D3FB002801D0012010BD0020FCE7000054
:1024D000000800501CB5044600940C200190694689
:1024E000074800F023F8064800F086FA0A2104485D
:1024F00000F010FA024800F09DF880B21CBD000008
:1025000058090020F8B507460C460025002605E0CE
:102510003846FFF7DFFF4519701CC6B2A642F7DB4D
:1025200021462846FEF770F880B2F8BD70B5044623
:102530000D4600BF5420005D012801D1022070BD6E
:1025400001215420015500BF206880680421084003
:10255000800800280AD0A06D20210843A06500BF94
:1025600000215420015500BF0120E8E72D4968688B
:10257000884229D02068806A29684903490B0843AA
:102580002168886228684003400B274908400121E0
:102590008904884208D125488068490108432349B5
:1025A00088600A20FFF718FF28684003400B204985
:1025B00008400121490488422CD11C488068490107
:1025C00008431A49886025E02068806A2968490321
:1025D000490B88432168886228684003400B1249F0
:1025E000084001218904884205D1104880684901CA
:1025F00088430E49886028684003400B0C49084016
:1026000001214904884205D108488068490188436E
:102610000649886000BF00215420015500BF0020FA
:102620008DE7000001100000000004480027014071
:102630000000024401460868006C704710B504466B
:10264000002C01D1012010BDA06D002806D1E0654D
:10265000002154200155204600F00AF9A06D1021F8
:102660000840002806D120688068042108408008BE
:1026700000280AD0A06D10210843A06500BF0021EA
:102680005420015500BF0120DDE7A06DFF2101317D
:10269000884302210843A065206880688007800F76
:1026A000012807D120680068C007C00F002801D0AA
:1026B000012000E0002000283AD100BF0321890753
:1026C0006069884207D049426069884203D0490066
:1026D000606988420CD12068006980008008216808
:1026E000086120680069616908432168086112E097
:1026F0002068006980008008216808615948806866
:102700000F218904884357498860084680686169B9
:1027100008435449886000BF2068C0681821884376
:102720002168C8602068C068A16908432168C86042
:102730004C4880680121490688434A498860084618
:102740008068A16C49060843464988602068806813
:10275000012109070840002804D120688068084347
:10276000216888602068C0683F4908402168C860C7
:10277000216A606A022901D1042100E00021084396
:10278000A16A49030843A16B49000843216C08432F
:10279000616C89030843E16CC90308432168C96877
:1027A00008432168C860FF21C231206B884207D0EE
:1027B000616B206B08432168C96808432168C860C1
:1027C000E06A012812D1A06A002807D12068C068F9
:1027D0000121090408432168C86007E0A06D202199
:1027E0000843A065E06D01210843E06560680128A9
:1027F00016D1206800691D49084021680861A16858
:10280000E068084321690843216809690843216891
:1028100008612068006901210843216808610BE014
:1028200020680069C007C00F002805D02068006933
:10283000400840002168086120684069C008C00065
:102840002168486120684069E1690843216848615E
:102850000020E065A06D0221884301210843A065A6
:102860000020F0E6002701401902FEFF03FCFF7F75
:1028700010B586B004462448406B01214902084344
:102880002149486300BF0846C06A042108431E4925
:10289000C8620846C06A04210840009000BF00BF1B
:1028A00000BF1948C06A012108431749C862084699
:1028B000C06AC007C00F009000BF00BF00BF08463D
:1028C000C06A022108431049C8620846C06A022152
:1028D0000840009000BF00BF0E200190032002902E
:1028E0000020039001A9094800F0C2F803200190DC
:1028F00001A9074800F0BCF80A20019001A9C00610
:1029000000F0B6F806B010BD0010024000080050FC
:1029100000040050F8B504460D46E06B082801D1CC
:10292000082711E02068C068C007C00F00280AD03F
:10293000A06D20210843A06500BF0021542001554F
:1029400000BF0120F8BD0C2700F09EF9064614E0F8
:10295000681C002811D0002D04D000F095F9801BD0
:10296000A8420AD9A06D04210843A06500BF002138
:102970005420015500BF0320E4E720680068384078
:102980000028E5D0A06D012149020843A065206818
:10299000C068032189020840002825D1A06A0028C8
:1029A00022D1206800680821084008281CD120682E
:1029B000806804210840800800280DD12068406804
:1029C0000C21884321684860A06DFF2101318843B4
:1029D00001210843A06507E0A06D20210843A06500
:1029E000E06D01210843E065606C002802D10C20F5
:1029F000216808600020A5E770B50446002520681E
:102A0000806804210840800800282BD100BF542092
:102A1000005D012801D1022070BD01215420015523
:102A200000BFE06C012803D02046FFF7EBFC054611
:102A3000002D18D1A06D0D490840FF210131084338
:102A4000A0650020E06500BF00215420015500BFB3
:102A50001C202168086020688068042108432168E0
:102A6000886000E002252846D6E70000FEF1FFFF5F
:102A700070B50346002200240020DFE001269640C6
:102A80000D6835402C46002C77D04D68022D02D0C1
:102A90004D68122D15D1D508AE001D462035A85918
:102AA0005507EE0E0F25B5400646AE433046560795
:102AB000F60E0D69B5402843D508AD001E462036F8
:102AC00070514D68012D08D04D68022D05D04D681C
:102AD000112D02D04D68122D18D19868560003258B
:102AE000B5400646AE4330465600CD68B540284353
:102AF00098605868012595400646AE43304610263A
:102B00004D6835402D099540284358601868560097
:102B10000325B5400646AE4330460D79AD07AD0FEF
:102B20005600B54028431860D86856000325B540C4
:102B30000646AE43304656008D68B5402843D860FF
:102B4000012636074D683540B54276D13E4D6D6B56
:102B5000012635433C4E75633C4D9608B600A85996
:102B600095072E0F0F25B5400646AE433046052586
:102B70002D07AB4202D100251AE05EE0344DAB4296
:102B800001D1012514E0334DAB4201D102250FE004
:102B9000314DAB4201D103250AE0304DAB4201D1AA
:102BA000042505E02E4DAB4201D1052500E00625A8
:102BB0009607360FB5402843244D9608B600A85115
:102BC000284D28680546A5432846012636044D6849
:102BD0003540B54202D1054625432846214D28609F
:102BE00068680546A5432846012676044D683540A9
:102BF000B54202D10546254328461A4D6860A868AB
:102C00000546A5432846012636054D683540B542A0
:102C100002D1054625432846124DA860E8680546BE
:102C2000A5432846012676054D683540B54202D1B8
:102C30000546254328460B4DE860521C0D68D540DB
:102C4000002D00D01AE770BD0010024008000140BE
:102C50000004005000080050000C0050001000500C
:102C6000001C005000040140024613690B40002B79
:102C700001D0012000E000207047002A01D08161CE
:102C800000E0816270470000014800687047000062
:102C90000400002002480068401C01490860704799
:102CA0000400002010B5064800680221884304494A
:102CB0000860032000F006F800F017F8002010BDAF
:102CC0000020024070B5044600F038F906467D2128
:102CD000C900FDF799FC054600F0D4FC002221460E
:102CE000501E00F00FF8002070BD704700BFC206F4
:102CF000D20E01219140024A116000BF70470000CE
:102D000000E100E070B504460D461646294620460F
:102D100001F070F870BD000003480068FF21013128
:102D20000843014908607047007000400249496843
:102D30000143014A51607047007000400748006835
:102D40000221084305490860054800690421084339
:102D50000349086100BF00BF30BF704700700040EA
:102D600000ED00E070B504460D460026704800688E
:102D7000C007C00FA8420ED26D480068400840004E
:102D800028436B49086008460068C007C00FA84286
:102D900001D0012070BD022120680840022807D11F
:102DA0006448C068F0218843A16808436149C8604D
:102DB0002078C007C00F00284CD06068022809D1D5
:102DC0005C480068012149040840400C002824D1D7
:102DD0000120DFE76068002809D15648006801211A
:102DE00049020840400A002817D10120D2E7606854
:102DF000032809D14F480068012149060840400EC8
:102E000000280AD10120C5E74A480068042108408B
:102E10008008002801D10120BCE74648C06880082E
:102E20008000616808434349C860FFF72DFF0646EC
:102E3000606802280FD107E0FFF726FF801B3E499C
:102E4000884201D90320A5E73A48C0680C21084010
:102E50000828F1D134E0606803280FD107E0FFF7BC
:102E600013FF801B3449884201D9032092E731487F
:102E7000C0680C2108400C28F1D121E060680028CE
:102E80000FD107E0FFF700FF801B2B49884201D9D3
:102E900003207FE72748C0680C2108400028F1D1B3
:102EA0000EE007E0FFF7F0FE801B2349884201D9BE
:102EB00003206FE71F48C0680C2108400428F1D1A7
:102EC0001B480068C007C00FA8420ED3184800680E
:102ED0004008400028431649086008460068C007BB
:102EE000C00FA84201D0012054E704212068084007
:102EF000042808D10F48C068072109028843E16807
:102F000008430C49C860082120680840082809D1F6
:102F10000848C0680721C90288432169C9000843DD
:102F20000449C8600320FFF7CDFE002032E700000F
:102F300000200240001002408813000010B500F08D
:102F400037F80649C968F02211400909044A515C62
:102F5000C840044908600846006810BD00100240DF
:102F60000D5A00080000002010B5FFF7E7FF0549E3
:102F7000C968072212021140090A034A515CC8407D
:102F800010BD0000001002400D5A000810B5FFF7F8
:102F9000D5FF0549C9680722D2021140C90A034A70
:102FA000515CC84010BD0000001002400D5A0008DE
:102FB000F8B50024002600200090002700253248A4
:102FC0004068072149030840470B2F48C0680C217F
:102FD0000840002806D0042809D0082811D00C2861
:102FE00049D110E0781C01218140CD0348E02648FA
:102FF000006810210840002801D0244D00E0244D35
:103000003EE0244D3CE02048C0680F218904084080
:1030100004461D48C0680321890508400646A00CE7
:103020001D490C5CB00D461C1748C06801210904FD
:10303000084000900098002815D11348006810211E
:103040000840002807D01149614308463146FDF782
:10305000DBFA05460EE00E49614308463146FDF7AE
:10306000D3FA054606E00B49614308463146FDF7B1
:10307000CBFA054604E0781C01218140CD0300BF56
:1030800000BF2846F8BD00000010024000093D00C6
:103090000024F40000127A00045A0008F8B504462F
:1030A00000252078C007C00F002870D0FE48C068F7
:1030B0000C21084008280BD0FB48C06808400C28A9
:1030C00013D1F948C06801210904084088420CD195
:1030D000F5480068012149040840400C00286AD0E6
:1030E0006068002867D10120F8BD00BF01210904F4
:1030F0006068884205D1EC4800680843EA490860E6
:103100002EE0052109046068884215D1E648006870
:10311000012109048843E449086008460068012148
:1031200089040843E0490860084600680121090451
:103130000843DD49086013E0DB4800680121090409
:103140008843D949086008460068012109040840FD
:10315000009000BFD448006889008843D2490860C5
:1031600000BF6068002813D0FFF78EFD054606E01B
:10317000FFF78AFD401B642801D90320B4E7CA4841
:103180000068012149040840400C0028F0D012E0FA
:10319000FFF77AFD054606E0FFF776FD401B642841
:1031A00001D90320A0E7C048006801214904084074
:1031B000400C0028F0D102212068084002286AD182
:1031C000B948C0680C21084004280BD0B648C06834
:1031D00008400C281DD1B448C068012109040840EA
:1031E000002816D1B0480068042108408008002853
:1031F00004D0E068012801D0012075E7AA484068A2
:103200001F2109028843216909020843A649486031
:1032100041E0E068002824D0A348006809218843E1
:10322000E1680843A0490860FFF72EFD054606E067
:10323000FFF72AFD401B022801D9032054E79A48D2
:1032400000680421084080080028F1D096484068B2
:103250001F210902884321690902084392494860F5
:1032600019E09148006809218843E16808438E49C4
:103270000860FFF709FD054606E0FFF705FD401B66
:10328000022801D903202FE787480068042108405D
:1032900080080028F1D1102120680840102872D140
:1032A0008148C0680C210840002822D17E4800686F
:1032B000012149020840400A002804D0A0690028E2
:1032C00001D1012010E7784840680721490388436D
:1032D000216A084374494860084640680002000AB1
:1032E000217F09060843704948600320FFF7EAFC84
:1032F00049E0A06900282CD06B480068FF2101310B
:10330000084369490860FFF7BFFC054606E0FFF780
:10331000BBFC401B022801D90320E5E66248006897
:10332000012149020840400A0028F0D05E48406868
:10333000072149038843216A08435B4948600846DE
:1033400040680002000A217F090608435649486088
:1033500019E055480068FF2101318843524908604F
:10336000FFF792FC054606E0FFF78EFC401B0228A3
:1033700001D90320B8E64C48006801214902084001
:10338000400A0028F0D1082120680840082839D1D7
:10339000606900281BD0444840300069012108437F
:1033A000414940310861FFF76FFC054606E0FFF731
:1033B0006BFC401B022801D9032095E63A484030B7
:1033C00000690221084040080028F0D01AE0364881
:1033D0004030006940084000334940310861FFF740
:1033E00053FC054606E0FFF74FFC401B022801D9BD
:1033F000032079E62C48403000690221084040084B
:103400000028F0D104212068084004287ED100263D
:1034100000272548806B89060840002805D12248EE
:10342000806B084320498863012620480068FF21FB
:1034300001310840002817D11C48006808431B4987
:1034400008600127FFF720FC054606E0FFF71CFC9B
:10345000401B642801D9032046E614480068FF2178
:10346000013108400028F1D000BFFF210131A068E0
:10347000884207D10C484030006908430A4940316E
:1034800008613EE0A068002815D107484030006977
:10349000FF21013188430449403108610846006931
:1034A00009158843004903E0001002400070004005
:1034B0004031086125E005210902A068884213D146
:1034C0006D480069FF21013188436B490861084656
:1034D00000690915084368490861084600698915AB
:1034E0000843654908610CE063480069FF21013128
:1034F00088436149086108460069091588435E49A7
:10350000086100BFA068002816D000E03BE0FFF78C
:10351000BBFB054607E0FFF7B7FB401B5749884256
:1035200001D90320E0E5544800690121490208401F
:10353000400A0028EFD013E0FFF7A6FB054607E09E
:10354000FFF7A2FB401B4D49884201D90320CBE580
:1035500049480069012149020840400A0028EFD18A
:10356000012F05D146480068390288434449086064
:10357000012E07D140484038806B310788433E49CF
:103580004039886300BF606A002872D03A484038EA
:10359000C0680C2108400C2869D0606A022848D114
:1035A00035484038006801210906884332494039CE
:1035B0000860FFF769FB054606E0FFF765FB401B67
:1035C000022801D903208FE52B48403800680121EB
:1035D00049060840400E0028EFD1216BE06A0843FD
:1035E000A16A084324494039C968FD221204914365
:1035F000084321494039C86008460068012109068E
:1036000008431D4940390860FFF73EFB054606E0C8
:10361000FFF73AFB401B022801D9032064E5164856
:1036200040380068012149060840400E0028EFD0CC
:103630001FE01148403800680121090688430E49FF
:1036400040390860FFF720FB054606E0FFF71CFB4A
:10365000401B022801D9032046E50748403800688E
:10366000012149060840400E0028EFD101E0012069
:103670003AE5002038E500004010024088130000C1
:103680000070004070B504462546681E094988420E
:1036900001D901200CE0681E074948610321081F79
:1036A00000F0A8FB00200449886107200861002081
:1036B00070BD0000FFFFFF0000E000E010B5044611
:1036C000002C01D1012010BD3520005D002805D15E
:1036D000002134200155204600F00CF8022135204D
:1036E0000155211D206800F017FD012135200155ED
:1036F0000020E8E77047014602223520425408685E
:103700000068012210430A681060012235204254EB
:103710000020704701460868C068012210430A680B
:10372000D06008680068012210430A681060002019
:1037300070470000014602223520425400BF08684D
:10374000006A084A1040002805D10868006840084F
:1037500040000A68106000BF01223520425400205A
:103760007047000011110000704710B50446206832
:10377000006902210840400800281CD02068C06869
:1037800008404008002816D0481F21680861012021
:103790002075206880698007800F002803D02046AC
:1037A000FFF7E2FF05E0204600F09DF8204600F01C
:1037B0009BF80020207520680069042108408008DB
:1037C00000281DD02068C06808408008002817D055
:1037D000C8432168086102202075206880690321A0
:1037E00009020840002803D02046FFF7BDFF05E08E
:1037F000204600F078F8204600F076F8002020758A
:103800002068006908210840C00800281CD02068F2
:10381000C0680840C008002816D0C8432168086165
:10382000042020752068C0698007800F002803D01D
:103830002046FFF799FF05E0204600F054F82046A7
:1038400000F052F80020207520680069102108401F
:10385000000900281DD02068C06808400009002821
:1038600017D0C84321680861082020752068C06906
:10387000032109020840002803D02046FFF774FF07
:1038800005E0204600F02FF8204600F02DF800203B
:10389000207520680069C007C00F012148404840DA
:1038A00000280CD02068C0680840484048400028E4
:1038B00005D0C81E21680861204600F017F820686E
:1038C000006940210840800900280BD02068C068AA
:1038D00008408009002805D0C843216808612046B7
:1038E00000F016F810BD70477047000010B5044690
:1038F000054800880121C90308430349088003489B
:10390000FFF718FF10BD0000160000203826002029
:1039100070477047704710B504462068C069C007FB
:10392000C00F00280FD020680068FF210131084037
:10393000002808D0012021680862E06E01210843B8
:10394000E066692001552068C0690221084000280E
:103950000FD020688068C007C00F002809D002205F
:1039600021680862E06E04210843E06601216920B5
:1039700001552068C0690421084000280FD0206844
:103980008068C007C00F002809D0042021680862A1
:10399000E06E02210843E06601216920015520689C
:1039A000C0690821084000280FD020688068C0073F
:1039B000C00F002809D0082021680862E06E0821A5
:1039C0000843E066012169200155E06E002802D01D
:1039D0002046FFF79FFF2068C069012109050840C4
:1039E00000280ED02068806889000840002808D090
:1039F0008810216808620121692001552046FFF7DF
:103A000088FF2068C06920210840002807D020686E
:103A100000680840002802D0204600F0E5FC20683D
:103A2000C06980210840002807D02068006808404D
:103A3000002802D0204600F01BFF2068C06940210A
:103A40000840002807D0206800680840002802D0FD
:103A5000204600F0B1FC10BD10B50446002C01D189
:103A6000012010BDA069002800D000E000BF69203F
:103A7000005D002805D1002168200155204600F096
:103A800029F802216920015520680068400840009B
:103A900021680860204600F001FD606A002802D01D
:103AA000204600F0E1FB206840680921C9028843F4
:103AB00021684860206880682A21884321688860DE
:103AC000206800680121084321680860204600F052
:103AD00043FCC6E770470000FFB581B004460D46C1
:103AE00016466920005D012803D06920005D122878
:103AF00075D1002D01D0002E02D1012005B0F0BDFE
:103B000000BF6820005D012801D10220F6E70121F5
:103B10006820015500BF0020E0666920005D122882
:103B200003D132216920015502E02221692001558B
:103B3000582006535A20065300BF01210903A068EC
:103B400088420AD12069002803D135495C200153FD
:103B500020E0FF215C2001531CE0A06800280AD16E
:103B60002069002803D1FF215C20015312E07F214E
:103B70005C2001530EE001210907A068884209D1A9
:103B80002069002803D17F215C20015302E03F21FE
:103B90005C20015300BF5C20005B009027E05A20AE
:103BA000005B401E81B25A20015300222021204692
:103BB000049B00F09AFE002801D003209EE701211B
:103BC0000903A06888420BD12069002808D12F463C
:103BD0002068406A009908403880AD1C07E01CE06E
:103BE0002068406A0099C9B2084028706D1C5A20AC
:103BF000005B0028D3DC6920005D322803D112214C
:103C00006920015502E001216920015500BF002112
:103C10006820015500BF002070E702206EE7000019
:103C2000FF0100007047704710B50446002C01D119
:103C3000012010BD4120005D002805D10021402059
:103C40000155204600F026F8022141200155206848
:103C500000684008400021680860204600F044FFEA
:103C6000012800D1E5E720684068012189038843E5
:103C700021684860206880682A218843216888601C
:103C8000206800680121084321680860204600F090
:103C9000F5FECEE710B586B004461B492068884281
:103CA00030D100BF1948C06A042108431749C862CF
:103CB0000846C06A04210840009000BF00BF1348B6
:103CC000806B49040843114988630815019002205C
:103CD000029001200390022004900620059001A983
:103CE0000B48FEF7C5FE0120C002019001A908485B
:103CF000FEF7BEFE0E20FEF7F9FF032211460E204E
:103D0000FFF700F806B010BD004C00400010024064
:103D10000008005000BFFEE710B5044609480078CF
:103D2000844205D1012204210748FEF7A6FF08E0DE
:103D300006480078844204D1002204210248FEF79C
:103D40009CFF10BD13000020000C00501400002048
:103D500000B587B000BF0F48C06A082108430D496D
:103D6000C8620846C06A08210840019000BF00BF31
:103D7000042002900120039004900320059002A9E2
:103D80000548FEF775FE002204210348FEF775FF83
:103D900007B000BD00100240000C005010B51248E2
:103DA0001249086041051148416100218161416269
:103DB0000162C1638162C162FF21C23101630021DE
:103DC000416381630121C164002141640121816457
:103DD0000021016400200549486007210348C161B2
:103DE000FEF72CFC10BD0000002401405809002003
:103DF0007047000010B5002819DA1A4A03071B0F94
:103E0000083B9B089B00D2588307DC0EFF23A3408E
:103E10009A438B071B0E8407E40EA3401A43114BF1
:103E20000407240F083CA408A4001A5118E00E4A05
:103E300003231B02D21883089B00D2588307DC0E91
:103E4000FF23A3409A438B071B0E8407E40EA34075
:103E50001A43054B032424021B198408A4001A5199
:103E600010BD00001CED00E000E100E000B587B0EF
:103E700000BF1448C06A012108431249C8620846BD
:103E8000C06AC007C00F019000BF00BF6020029051
:103E900001200390022004900320059002A9052030
:103EA0000007FEF7E5FD0022202105200007FEF7B0
:103EB000E4FE0022402105200007FEF7DEFE07B0E9
:103EC00000BD00000010024000B587B000BF1048E0
:103ED000C06A022108430E49C8620846C06A02212E
:103EE0000840019000BF00BF4020029001200390D5
:103EF000022004900320059002A90648FEF7B8FDB1
:103F0000002240210348FEF7B8FE07B000BD0000C4
:103F1000001002400004005000B587B000BF1348F5
:103F2000C06A042108431149C8620846C06A0421D6
:103F30000840019000BF00BF0D480290012003908F
:103F4000022004900320059002A90A48FEF790FD84
:103F50000022012189030748FEF78FFE002220215D
:103F60000448FEF78AFE07B000BD000000100240C2
:103F700020400000000800507047704710B5FEF761
:103F800089FE10BD10B50020C043104908620846E4
:103F9000806B090408430D4988630C484030006970
:103FA0000121C9040843094940310861FEF7B4FE04
:103FB00007480068042108430549086003200002FF
:103FC000FEF7B4FEFEF7BAFE10BD0000001002407E
:103FD0000070004000B593B014210EA8FCF712FB4E
:103FE000342101A8FCF70EFB1848806B012109075A
:103FF000084316498863164800680321C9028843AC
:104000000121C902401812490860022001900020D5
:1040100002900120049002200A9000210B9141049B
:104020000C9141050D911020059001A8FFF736F87D
:104030000F200E9003200F900020109011901290EE
:1040400001210EA8FEF78EFE13B000BD0010024045
:104050000070004015480068FF21013108431349F2
:1040600008600846C068124908401049C860084600
:104070000068104908400D490860084680684008FB
:104080004000886008460068012189048843074988
:1040900008600846C068FD21090488430349C860D8
:1040A00000200861C803044988607047001002407E
:1040B0000C40FF88F6FFF6FE00ED00E010B5024868
:1040C000FFF753FB10BD00003826002070B50546F1
:1040D0000C460E48806B202108430C4988630C482D
:1040E0000C4908600846446000218160C560016198
:1040F000FFF7E4FA0748FFF70DFB01220021122029
:10410000FEF700FE1220FEF7F1FD70BD0010024028
:10411000001400403826002010B500220268012358
:104120009B07984208D01A4B984205D0194B9842E9
:1041300002D0194B984201D1012300E00023002B4B
:1041400005D070241346A3431A464B681A43012333
:104150009B07984208D00E4B984205D00D4B9842D1
:1041600002D00D4B984201D1012300E00023002B27
:1041700006D0032424021346A3431A46CB681A43ED
:1041800002608B68C3620B6883620123436110BDC8
:1041900000040040000801400014014010B586B042
:1041A000044600BF2A48C06A012108432849C86262
:1041B0000846C06AC007C00F009000BF00BF084695
:1041C000406B012189030843214948632148224962
:1041D00008600846446000218160C160016181611E
:1041E0000C214161FFF738FC0320400201900220BE
:1041F000029001200390022004900420059001A960
:1042000005200007FEF734FC1348006800684021D1
:1042100088431149096808600F4800680068202138
:1042200008430D49096808601B20FEF75FFD032263
:1042300002211B20FEF766FD08496320FFF746FFB9
:104240000748FFF777FA00200649088006B010BD3E
:104250000010024000380140FC100020272300001D
:104260003826002016000020818CC907C90F0029BC
:1042700008D001684968012252049143826A1143BF
:10428000026851600222416A1140002907D001688A
:104290004968D2039143C26A114302685160042203
:1042A000416A1140002907D001684968120491430E
:1042B000026B1143026851600822416A11400029D3
:1042C00007D00168496812039143426B11430268A9
:1042D00051601022416A1140002907D001688968A5
:1042E00012029143826B1143026891602022416A5D
:1042F0001140002907D00168896812029143C26BFE
:104300001143026891604022416A1140002915D092
:104310000168496892039143026C1143026851603D
:1043200001221205016C914208D1016849680322FB
:1043300052059143426C1143026851608022416AE8
:104340001140002907D00168496812039143826C2B
:10435000114302685160704710B504462068006838
:1043600008210840082809D1124B00228104204668
:1043700000F0BBFA002801D0032010BD20680068BF
:1043800004210840042809D10A4B002201052046D7
:1043900000F0ABFA002801D00320EEE700BF0021B7
:1043A0006820015500BF0020E06601216920015509
:1043B0000020E2E7F055000010B5044620680068D0
:1043C00040218843216808606920005D322803D1BC
:1043D00022216920015502E0012169200155204672
:1043E000FFF721FC002010BD70B504465C20065B81
:1043F0006920005D222803D06920005D32284BD15E
:1044000001210903A06888420BD12069002808D146
:10441000656D2068406A30402880606D801C606552
:1044200007E02068406AF1B20840626D511C616586
:1044300010705A20005B401E81B25A20015300299F
:1044400028D100BF2068C069202108400028F9D188
:10445000206800688843216808606920005D322870
:1044600003D11221692001550FE020680068FF2167
:104470000131884321680860206880684008400056
:10448000216888600121692001552046FFF7CAFB99
:10449000002070BD0020FCE70220FAE7F0B58BB0E9
:1044A000044600260025002700200A90E2492068E3
:1044B000884201D1012000E00020002800D000E067
:1044C00000BF2169A068084361690843E1690843A6
:1044D000064620680068D9490840304321680860D2
:1044E00020684068032109038843E1680843216884
:1044F0004860A669D0492068884201D1012000E0C7
:104500000020002801D1206A0643206880680B2122
:104510000902884330432168886000BFC849206889
:10452000884216D1C748C0688007800F002806D08F
:10453000012808D0022804D0032808D105E001256D
:1045400006E0022504E0042502E0082500E000BFA3
:1045500038E0BD492068884216D1BA48C0680C21AD
:104560000840002806D0042808D0082804D00C28C9
:1045700008D105E0002506E0022504E0042502E05C
:10458000082500E000BF1DE0AB492068884219D132
:10459000AC48C068032189020840002808D00121E6
:1045A0008902401A08D0401A04D0401A08D105E008
:1045B000002506E0022504E0042502E0082500E0CD
:1045C00000BF00BF00BF9C492068884201D1012084
:1045D00000E0002000287AD0002D06D0022D25D042
:1045E000042D53D0082D73D173E06268104600216A
:1045F000FCF718FD07910690FEF7B6FC002101912B
:104600000090FCF70FFD0022904B03910290FCF705
:104610000DFD05910490079B069AFCF751FA09914C
:104620000890FCF771FC2168C86067E08548403855
:104630000068102108400009002813D06268104665
:104640000021FCF7EFFC02460B4607910690002084
:104650007F49FCF735FA09910890FCF755FC216871
:10466000C86012E0626810460021FCF7DBFC0246DD
:104670000B460791069000207649FCF721FA099134
:104680000890FCF741FC2168C86037E0626810467A
:104690000021FCF7C7FC07910690FEF789FC00217A
:1046A00001910090FCF7BEFC0022684B0391029040
:1046B000FCF7BCFC05910490079B069AFCF700FAF6
:1046C00009910890FCF720FC2168C86016E016E00C
:1046D00013E0626810460021FCF7A4FC02460B467A
:1046E0000791069000205C49FCF7EAF909910890CF
:1046F000FCF70AFC2168C86000E000BF9AE00121D5
:10470000C903E069884251D12B0000F07BFB090608
:10471000101A42304242423A4200FEF725FC400065
:1047200009906168FBF770FF80B20A9032E0FEF7F3
:104730002DFC400009906168FBF766FF80B20A908B
:1047400028E040484038006810210840000900284F
:1047500006D042486168FBF757FF80B20A9005E037
:104760003F486168FBF750FF80B20A9012E0FEF705
:104770001FFC400009906168FBF746FF80B20A9079
:1047800008E0012000046168FBF73EFF80B20A9058
:1047900000E000BF00BF33490A98084007460A9866
:1047A0000007400F07432068C76043E02B0000F07C
:1047B00029FB09060F183F2E3F3F3F373F00FEF70A
:1047C000D3FB09906168FBF71FFF2168C86030E0E8
:1047D000FEF7DCFB09906168FBF716FF2168C860F3
:1047E00027E01848403800681021084000090028D8
:1047F00006D01D486168FBF707FF2168C86005E027
:104800001A486168FBF700FF2168C86011E0FEF7F5
:10481000CFFB09906168FBF7F7FE2168C86008E0EC
:104820000120C0036168FBF7EFFE2168C86000E06B
:1048300000BF00BF0BB0F0BD00480040F369FFEFC0
:104840000038014040100240004400400000704029
:104850008084CE418084EE410000604100127A00E5
:104860000048E801F0FF000000093D000024F400CA
:1048700001466920405C122803D06920405C322840
:1048800031D15220405A00280DD108680068802399
:1048900098430B68186008680068402318430B6849
:1048A00018600020704701231B03886898420CD1D0
:1048B0000869002809D1CA6C1088C005C00D0B68B2
:1048C0009862C86C801CC86405E0CB6C581CC86436
:1048D00018780B6898625220405A401E83B25220CA
:1048E00043520020DEE70220DCE7FFB581B004463A
:1048F0000E461D460027FEF7C7F907460398002815
:1049000039D12DE0681C00282AD0002D04D0FEF7F4
:10491000BBF9C01BA84223D92068006880218843C6
:1049200021680860206800682021884321680860A9
:1049300020680068FF2101318843216808602068F1
:104940008068400840002168886001216920015585
:1049500000BF00216820015500BF032005B0F0BD55
:104960002068C0693040B04201D1012000E0002041
:104970000028C7D037E02CE0681C002829D0002D83
:1049800004D0FEF781F9C01BA84222D92068006834
:1049900080218843216808602068006820218843BE
:1049A0002168086020680068FF2101318843216880
:1049B0000860206880684008400021688860012104
:1049C0006920015500BF00216820015500BF032068
:1049D000C4E72068C0693040B04201D1012000E046
:1049E00000200028C8D10020B8E7000008B51E4804
:1049F0000068C06920210840400900282FD07D238D
:104A0000DB00012269461848FFF766F8174800885E
:104A10000121C9030840002821D114480088FF2142
:104A20009131884214DA0020114948620F48008809
:104A3000002802D10F48FEF75EFE684601780B4859
:104A400002880088401C094B18800B48815406E0FE
:104A5000064800880121C903084304490880024828
:104A6000FEF759FF08BD0000FC10002016000020D2
:104A700000140040382600206C0F002010B50446BA
:104A800000206064206800680821084008280DD1D3
:104A90007D23DB0000228104204600F0E3F800289B
:104AA00004D0032141200155032010BD2068006877
:104AB0000421084004280DD17D23DB0000220105DC
:104AC000204600F0CFF8002804D0032141200155F2
:104AD0000320EAE700BF00214020015500BF01216B
:104AE000412001550020E0E7FEB5044600250020E6
:104AF00002900190002600272169A068084361699F
:104B000008430121C90308430546206800684F494E
:104B100008402843216808600125ED02E169A06989
:104B200008430543E168206A08430543206840685C
:104B30003F210902884328432168486000BF444957
:104B4000206888421AD14348C0688007800F002837
:104B500006D001280AD0022805D003280CD108E08D
:104B60000120029009E00220029006E00420029059
:104B700003E00820029000E000BF1EE036492068F4
:104B800088421AD13348C0680C210840002806D05A
:104B900004280AD0082805D00C280CD108E00020F1
:104BA000029009E00220029006E00420029003E057
:104BB0000820029000E000BF00BF00BF0298042858
:104BC00024D006DC002809D0012810D002282DD1DD
:104BD00016E0082823D0102828D128E0FEF7C4F9D1
:104BE000400000906168FBF70FFD87B222E0FEF7FE
:104BF000CDF9400000906168FBF706FD87B219E02F
:104C000016486168FBF700FD87B213E0FEF7D0F9A4
:104C1000400000906168FBF7F7FC87B20AE00120D2
:104C200000046168FBF7F0FC87B203E000BF0120DD
:104C3000019000BF00BF0A48384006463807400FC1
:104C400006432068C6600198FEBD0000F369FFEFCF
:104C50000038014040100240004400400048E80194
:104C6000F0FF0000FFB581B004460E461D46002748
:104C7000FEF70AF807460398002839D12DE0681C92
:104C800000282AD0002D04D0FDF7FEFFC01BA8424B
:104C900023D9206800688021884321680860206843
:104CA0000068202188432168086020680068FF218F
:104CB000013188432168086020688068400840000E
:104CC0002168886001214120015500BF002140205A
:104CD000015500BF032005B0F0BD2068C069304019
:104CE000B04201D1012000E000200028C7D037E009
:104CF0002CE0681C002829D0002D04D0FDF7C4FF4B
:104D0000C01BA84222D920680068802188432168FE
:104D100008602068006820218843216808602068B6
:104D20000068FF210131884321680860206880689D
:104D3000400840002168886001214120015500BFE2
:104D400000214020015500BF0320C4E72068C0694E
:104D50003040B04201D1012000E000200028C8D13D
:104D60000020B8E700B587B000BF1848C06A04212A
:104D700008431649C8620846C06A042108400190E9
:104D800000BF00BF00BF1148C06A012108430F499E
:104D9000C8620846C06AC007C00F019000BF00BFCC
:104DA00001204003029002200490059002A90848C7
:104DB000FDF75EFE0120029002200490059002A9FA
:104DC00005200007FDF754FE07B000BD00100240AB
:104DD00000080050F8B5040C8BB2264682B25E4340
:104DE000104658430D0C370C360400218019164626
:104DF00079416E43370C36048019264679416E435B
:104E00008919F8BD30B47446641E2578641CAB4221
:104E100004D3635D5B00E31830BC18471D46F8E718
:104E20004900CA020243100000D004204A0D01D0FC
:104E300001221043044A490D914201D10221084345
:104E4000012800D105207047FF07000030380A28EC
:104E500001D2012070470020704700BF704700005A
:104E6000F0B503460C46002B10D100210AE0C80023
:104E7000251821CD8526F6004E436A4FBE1921C65E
:104E8000481CC1B20529F2DB0020F0BD012B11D175
:104E900000210BE0C800251821CD8526F6004E43E1
:104EA000604FF619F560B060481CC1B20529F1DB0E
:104EB0000020EAE7022B12D100210CE0C8002018E4
:104EC000056840688526F6004E43564FF619356151
:104ED0007061481CC1B20529F0DB0020D5E7032B27
:104EE0001CD1002116E0002210E01A20484380184F
:104EF000C000251821CD8526F6004E43494FF619EE
:104F00001836D700F61921C6501CC2B21A2AECDB9B
:104F1000481CC1B20529E6DB0020B6E7042B1CD1F2
:104F2000002116E0002210E01A2048438018C0003B
:104F3000251821CD8526F6004E433A4FF619E8365E
:104F4000D700F61921C6501CC2B21A2AECDB481C45
:104F5000C1B20529E6DB002097E7052B1DD1002112
:104F600017E0002211E01A2048438018C0002518DD
:104F700021CD8526F6004E432A4FF619FF36B93665
:104F8000D700F61921C6501CC2B21A2AEBDB481C06
:104F9000C1B20529E5DB002077E7062B1ED10021F1
:104FA00018E0002212E01A2048438018C00025189B
:104FB00021CD8526F6004E431A4FF6195127FF00E2
:104FC000F619D700F61921C6501CC2B21A2AEADB1C
:104FD000481CC1B20529E4DB002056E7072B1ED18F
:104FE000002118E0002212E01A2048438018C00077
:104FF000251821CD8526F6004E430A4FF6196B275A
:10500000FF00F619D700F61921C6501CC2B21A2AA1
:10501000EADB481CC1B20529E4DB002035E70120AA
:1050200033E70000701100200A4909690422914306
:10503000084A1161C217520F12185205120E064B80
:105040001A707D21C90041434903090C034A1180AC
:105050007047000000E000E0080000200A00002087
:1050600070B50646872189003046FBF7D7FAC4B2EF
:10507000872189003046FBF7D1FA8DB205E0872001
:10508000800000F00BF8601EC4B2002CF7D1002D98
:1050900002D0284600F002F870BD000001460D4A1B
:1050A00012884A430C4B5A6100229A6101221A610C
:1050B00000BF094A1069C207D20F002A04D001229A
:1050C00012040240002AF4D00022034B1A619A61B4
:1050D000704700000A00002000E000E000BF054A21
:1050E000D26940231A40002AF9D0C2B2014B9A6219
:1050F00070470000004C004098B028210EA8FBF734
:1051000081FA00BF00BF00210A910B910027002403
:10511000FDF7C8FDFEF75EFF2020FFF785FFE120C9
:10512000400200F0EBFBE1204002FFF737F8FEF70A
:105130000FFE90480078FEF7EFFDFFF713FE052005
:10514000FFF78EFFFDF7B0F9002801D1FEF71AFF37
:10515000FEF78CFEFEF7B8FEFEF7DEFE01222021F0
:1051600005200007FDF789FD0122402105200007E9
:10517000FDF783FDFEF712FE6420FFF771FF0024A8
:1051800041E0002716E005217B48FDF7BBF90990B7
:10519000FBF707FF0D910C900AA80FC800F0EEFB7B
:1051A00002D20B990A9801E00D990C980B910A9084
:1051B000781C87B2642FE6DB704A714B0B990A9812
:1051C000FBF734FF00226F4B03910290FBF778FC52
:1051D00000226D4B05910490FBF728FF674A6B4B4B
:1051E00007910690FBF76CFC644A694B09910890A3
:1051F000FBF71CFFE200674B9A1803C200210A91DB
:105200000B91601C84B2822CBBDB62490720FFF744
:1052100027FE61A0FBF770F8002434E00521634805
:10522000FDF770F90990FBF7BCFE05460E462A46CD
:10523000334652485249FBF7F9FE0022514B019187
:105240000090FBF73DFC002201239B070391029095
:10525000FBF7ECFE002201239B0705910490FBF76E
:105260000CFC534A534B07910690FBF729FC002294
:10527000454B09910890FBF7D9FEE2004E4B9A1876
:1052800003C2601C84B2822CC8DB4B490320FFF7A9
:10529000E7FD4AA0FBF730F8002426E014214B4834
:1052A000FDF730F90990FBF77CFE05460E462A46CD
:1052B000334632483249FBF7B9FE0022314B0591A3
:1052C0000490FBF7FDFB0022414B07910690FBF792
:1052D000D4FB404A404B09910890FBF7F1FBE200F8
:1052E0000EAB9A1803C2601C84B2052CD6DB0024D6
:1052F0000FE0E0000EA9081803C802460B4609910A
:10530000089036A0FAF7F8FF0A20FFF7A9FE601C04
:1053100084B2052CEDDB0EA90220FFF7A1FD35A01C
:10532000FAF7EAFF012240213648FDF7A6FC0022E9
:10533000202105200007FDF7A0FC002202213248B1
:10534000FDF79BFC002204212F48FDF796FC00226C
:1053500008212D48FDF791FC00F070FA2B480078E9
:10536000FEF7DAFC7D20C000FFF77AFEFEF70AFEAA
:1053700000BFFEE71300002000100030666666667E
:1053800066660A400000B0400000144066660640B1
:105390006666E63F3804002046696E6973682063DC
:1053A000757272656E740D0A000000000200000440
:1053B00052B81E85EB51F03F2800002046696E6907
:1053C000736820666F726365310D0A000008002C57
:1053D0000000E03F7B14AE47E17A743F446565709E
:1053E00074682064617461206973202566200D0A49
:1053F0000000000046696E6973682064656570741A
:10540000680D0A000004005000080050140000203D
:1054100070B506460C46114811490A780270497861
:10542000417010490A7882704978C170224631462D
:10543000001DFAF715FF00250CE000BF0A48C069FF
:10544000402108400028F9D00448405D06498862A0
:10545000681C85B2201D8542EFDB70BDB8090020B5
:105460001D5A00081F5A00080038014070B5044654
:1054700000250A4800880121C903084000280BD0F4
:105480000020064909884904490C054A5054214620
:105490001046FBF763F80546284670BD160000204D
:1054A0006C0F002010B57D22D20021A121A000F0B8
:1054B00085F8002801D0012010BD7D22D2001CA15A
:1054C00020A000F07BF8002801D00220F4E7FF22A2
:1054D000F53217A122A000F071F8002801D00320B6
:1054E000EAE7FF22F53212A120A000F067F8FF22C0
:1054F000F5320FA123A000F061F8002801D00520AB
:10550000DAE726A0FAF7F8FE10E000F099F8044672
:10551000214625A0FAF7F0FE002027490880002C3C
:1055200000D1C9E7022C01DB0220C5E7EDE700004E
:105530004F4B000041542B4347434C4153533D22B2
:105540004222000041542B434744434F4E543D31C7
:105550002C224950222C22434D4E4554220000005B
:1055600041542B43474154543D31000041542B4397
:105570004950435347503D312C22434D4E45542210
:105580000000000041542B434C504F52543D2254D4
:105590004350222C22323030302200007375636376
:1055A0006573730D0A00000054686520737461749C
:1055B000652069732025640016000020F8B50446B4
:1055C0000E4615460027002019490880FF2C09D8EF
:1055D00000BF1848C069402108400028F9D015488C
:1055E000846203E0214614A000F060F9002E1DD073
:1055F000002D1BD012E00A20FFF732FD0C48008876
:105600000121C9030840002808D03046FFF72EFFCB
:10561000002800D006E0002005490880681E80B2FE
:10562000051EE8D100BF002D00D101273846F8BD86
:10563000160000200038014025730D0A000000000C
:1056400070B5002400203C4908803CA0FAF754FEC5
:105650003F4940A0FAF750FEFF22F53245A146A08F
:10566000FFF7ACFF002801D0012070BD63E07D2270
:10567000D2004CA14CA0FFF7A1FF002839D1852111
:10568000C90061434B4A88188521C900FFF7C0FE55
:105690007D22D20048A11A20FFF790FF00281AD1DE
:1056A000601C84B2052C11DBFF22F53244A147A017
:1056B000FFF784FFFF22F53248A14AA0FFF77EFFE3
:1056C00021464BA0FAF718FE0020CEE721464DA058
:1056D000FAF712FE09E0002211461B20FFF76EFFC9
:1056E000681C85B24AA0FAF707FE0A20FFF7B8FC4B
:1056F00009E0002211461B20FFF760FF681C85B2FD
:1057000045A0FAF7F9FD032D15DDFF22F5322CA196
:105710002EA0FFF753FFFF22F53230A131A0FFF793
:105720004DFF41A0FAF7E8FD43480078401CC0B2A5
:105730004149087099E79AE71600002042656769B9
:105740006E20696E6974696174696F6E0D0A00007C
:10575000C81400005468652073697A65206F66205C
:105760007465737456616C756520697320256420B7
:105770000D0A00004F4B000041542B434950535435
:105780004152543D22544350222C2233392E313081
:10579000382E3137392E313239222C2239303030FF
:1057A000220000003E00000041542B434950534565
:1057B0004E4400007011002053454E44204F4B00D2
:1057C000434C4F5345204F4B0000000041542B43A6
:1057D0004950434C4F53453D310000005348555408
:1057E000204F4B0041542B4349505348555400001F
:1057F000697465206E756D6265723A202564200DAE
:105800000A0000004974652069732025640D0A00B0
:105810006572726F720D0A0053656E642065727254
:105820006F720D0A00000000466174616C206572A1
:10583000726F720D0A0000002000002010B50024D5
:105840000BE00DA0FAF758FD0A20FFF709FC0EA0A7
:10585000FAF752FD0A20FFF703FC642211A112A0FF
:10586000FFF7ACFE0028ECD105E0FFF71BFE044675
:10587000002C00D110BDF8E74E4F2053494D383071
:1058800030432121210D0A0054525920544F204306
:105890004F4E4E4543542053494D383030432E2E01
:1058A0002E0D0A004F4B0000415400000FB438B5D4
:1058B00005A800900F48009A0499FAF70BFD002004
:1058C00000900C48FAF75EFE85B200240CE000BFA1
:1058D0000948C069402108400028F9D00548005D0A
:1058E00005498862601C84B2AC42F0DB38BC08BC5D
:1058F00004B01847B80900200038014010B504462C
:105900000648074908600846446000218160C1607C
:1059100001610C214161FEF787F910BD004C004088
:105920001009002010B500290AD00878002807D0F7
:1059300005487844FCF7DCFC002801D0002010BDAD
:105940000248784410BD00006E02000066020000AC
:1059500010B500290AD00878002807D005487844F7
:10596000FCF7C6FC002801D0002010BD0248784496
:1059700010BD00005E0200005602000070B5012557
:105980001C002D050C4310D4EC4206D4AC420AD4C2
:105990008B4200D070BD824270BDEB4217D4E94209
:1059A00015D48B4270BD9B4270BDEC4206D5AC4213
:1059B000F9D5994200D070BD904270BD6D005C0079
:1059C000EC4204D24C00EC4201D2994270BD0FB4BB
:1059D000034C0CBC03BC30B4FCF772F830BC70BD97
:1059E0001900160403B402487844844603BC604797
:1059F0006FBBFFFF00000000000000000102030475
:105A000006070809030406080C10182030000000DF
:105A1000000102030401020304060708095A5B108F
:105A20000104000008000000000000000200010066
:105A3000001080807F7E7D7C7B7A797877767675A2
:105A40007473727171706F6E6E6D6C6C6B6A6A6973
:105A50006868676666656464636362616160605F0D
:105A60005F5E5E5D5D5C5C5B5B5A5A595958585786
:105A700057565655555554545353525252515150EE
:105A800050504F4F4F4E4E4D4D4D4C4C4C4B4B4B41
:105A90004A4A4A4949494848484747474746464687
:105AA00045454544444444434343434242424241C2
:105AB000414100000000000000000000303132339E
:105AC0003435363738394142434445464030580032
:105AD0003031323334353637383961626364656664
