:020000040800F2
:10000000700F0020650100089D1E0008151E0008E5
:1000100000000000000000000000000000000000E0
:100020000000000000000000000000001B1F00088E
:100030000000000000000000191F00081D1F00083C
:1000400077010008770100087701000877010008B0
:10005000770100087701000877010008290B0008E4
:100060000000000077010008770100087701000810
:100070007701000877010008770100087701000880
:1000800077010008770100084D20000800000000FB
:100090007701000877010008770100087701000860
:1000A0007701000877010008770100087D29000822
:1000B0007701000877010008000000000000000040
:1000C00000F002F800F03EF80CA030C80838241800
:1000D0002D18A246671EAB4654465D46AC4201D180
:1000E00000F030F87E460F3E0FCCB6460126334274
:1000F00000D0FB1AA246AB4633431847702E0000CF
:10010000902E0000103A02D378C878C1FAD852076E
:1001100001D330C830C101D504680C6070470000BD
:100120000023002400250026103A01D378C1FBD813
:10013000520700D330C100D50B6070471FB51FBDFB
:1001400010B510BD00F0B0FC1146FFF7F7FF02F04C
:100150007FFE00F0C8FC03B4FFF7F2FF03BC02F01F
:100160001BFE00000748804707480047FEE7FEE700
:10017000FEE7FEE7FEE7FEE704480549054A064BB1
:1001800070470000E51F0008C1000008700900204A
:10019000700F0020700B0020700B0020704701E0F2
:1001A00004C0091F0429FBD28B0701D50280801CE3
:1001B000C90700D00270704700290BD0C30702D0D6
:1001C0000270401C491E022904D3830702D5028015
:1001D000801C891EE3E70022EEE70022DFE7002211
:1001E00003098B422CD3030A8B4211D300239C4674
:1001F0004EE003460B433CD4002243088B4231D3EC
:1002000003098B421CD3030A8B4201D394463FE07F
:10021000C3098B4201D3CB01C01A524183098B42DF
:1002200001D38B01C01A524143098B4201D34B01C8
:10023000C01A524103098B4201D30B01C01A52412B
:10024000C3088B4201D3CB00C01A524183088B42B2
:1002500001D38B00C01A524143088B4201D34B009B
:10026000C01A5241411A00D201465241104670470D
:100270005DE0CA0F00D04942031000D34042534012
:1002800000229C4603098B422DD3030A8B4212D3D2
:10029000FC22890112BA030A8B420CD38901921104
:1002A0008B4208D3890192118B4204D389013AD041
:1002B000921100E08909C3098B4201D3CB01C01A16
:1002C000524183098B4201D38B01C01A5241430929
:1002D0008B4201D34B01C01A524103098B4201D317
:1002E0000B01C01A5241C3088B4201D3CB00C01A84
:1002F000524183088B4201D38B00C01A5241D9D29C
:1003000043088B4201D34B00C01A5241411A00D21C
:100310000146634652415B10104601D34042002B18
:1003200000D54942704763465B1000D3404201B597
:100330000020C046C04602BD7047704770470000AD
:10034000F0B5F94D0C091E092C402E402F468BB0FC
:10035000A7437DD0B543FCD0002E7AD0002CFCD032
:100360000D465D40ED0F2543AC1BFF25AD04641920
:100370000894C502440DC9022143500DDC02044318
:100380000120C00701430443D2020191200C110C4B
:1003900000958C46010423468B430A91614609046B
:1003A000E24D8A430991010A7D444919803909784F
:1003B00005464D4301266D18F605751B6943C90CAA
:1003C000640B891C4C436418B5012C1B250C2E04AE
:1003D000B4434C434D43210C691889090591009D94
:1003E000E90701D00121C90704912C46019967084A
:1003F000CD072F434C08059DE10B4D432D0C29469D
:100400006646754302950D4645432E46029D7D1B6B
:10041000B44100950D465D4301942C0C2F040D460C
:100420005543AE462D0C3D43029503947546049CFE
:100430002D04641B049406D2029C039D641C0026B8
:1004400075410395029401AC70CC009F7D1B01E0C7
:100450003EE162E1B44109040095079101940599D8
:10046000A4086143090C0C464443650BE7040C46A1
:1004700066467443A646640B3C4303950294744657
:10048000049DE4042C1B049406D2029C039D641C6E
:10049000002675410395029401AC70CC009F7D1B32
:1004A000B44101940C465C430095650FE7000C468F
:1004B0005443A646640F3C43039502947446049D3E
:1004C000E4002C1B049406D2029C039D641C0026AD
:1004D00075410395029401AC70CC009F7D1BB44123
:1004E000AE09AF06049DC900AD092F43049DA406C3
:1004F000AD060495079D344369180791059DE10BEE
:100500004D432D0C29466646754302950D464543DD
:100510002E46029D7D1BB44100950D465D4301941E
:100520002C0C2F040D465543AE462D0C3D43029531
:1005300003947546049C2D04641B049406D2029C0B
:10054000039D641C002675410395029401AC70CC98
:10055000009F7D1BB44101948C050694079C890A79
:10056000611800950791019C0599A4086143090C45
:100570000D464543680BEF040D46644665436C0B1E
:100580003C43049FED047D1BAC4602D20025641C55
:100590006841009E019D371B8541084658430195DF
:1005A0000C46460FC5005443600F28436546E400DF
:1005B0002C1B02D20025401C6E41019D3F1AB54103
:1005C0002846BD09800628438446A009BF064E027E
:1005D0000699A40676180743079D002068410A99EA
:1005E000079019430020099B00906046FF191343B0
:1005F0004041E20F64003A43A4460446D71A8C41B6
:10060000A04203D90120009020463A46C70F941813
:1006100040416246D20F2243644664000494009C29
:10062000BE466400D71AA446044602978C4177461A
:10063000002F01D1A04204D96046401C8446029A92
:100640002046C40FA64694184041049A0546D20F8E
:10065000224364466400D31A8D417146002901D1BA
:10066000A84202D928461A46641C104301220028D9
:1006700000D0164361020020079B891904465C41A3
:100680000223002C02DB491813466441089DCE0A60
:100690002D145D194B056705E10A2C050D19089904
:1006A0003E43C9076940002B08D0934006D300227F
:1006B000761C5141002B01D1760876001C4A002D92
:1006C00043DB154241D0AA433FD030460BB0F0BDCA
:1006D00006180D464D41174C7642AC411AD3951879
:1006E0001C465C41134A6D42A24113D301225205BC
:1006F0004C00D4420AD15C00D4420BD04B4002D50E
:1007000092021143E2E749004908DFE75940C90F67
:10071000C90718E000200849D8E7054801420DD173
:100720000342F7D0F2E700000000FF073D2B000076
:100730000000F07F0000E0FF0000F87F1148594002
:100740000143C01241400020C0E70123089A9B06E4
:100750009A4205DC032252078918C90FC907B5E779
:10076000052252078918074A1143D2125140ADE7BA
:1007700070B515461C4602460B4628462146FFF733
:10078000DFFD70BDFFFFFF7F0346CA02400D10B5BD
:1007900010430A1504D00124E4072043002A05DB96
:1007A0000A4CA21A04D4D040FF2A00DD002010BD5C
:1007B0004A00002B01D0012000E000201018012287
:1007C0005205D042F2D8C817C04310BD1E04000025
:1007D00010B50B1E01D0202301E0011E2BD00C0C04
:1007E00001D10904103B0C0E01D10902083B0C0F8A
:1007F00001D109011B1F8C0F01D189009B1E00290B
:1008000001DB49005B1E0446DC4021431C05A418A3
:100810002022D21A90404B05C20AC90A1A4309196C
:10082000830501D1430818401623984002D30020C5
:10083000521C4141104610BDCA0FD20703D00B46CF
:10084000002140429941024B1A43C1E7004ABFE7E9
:100850000000D041F0B58B4C0F09254689B0BD434F
:100860007BD01D092646AE43FAD00E465E40274097
:10087000F60F3E43254071D024012142FBD0FF24D6
:10088000AD19A4042D1B039501252D05DB02DB0A00
:10089000C9022B43C90A29431E010901040F130F82
:1008A000050121431701880B820391432D098C46D2
:1008B000A90B1E438A039543B30B9A0396433F0942
:1008C000BA0B9403A74302962E467E430497B6467E
:1008D0004E19D7190C460196544305977E43371B92
:1008E0007646BF1B3601B646BE0B361900967646D5
:1008F000BC043719009C01D3641C00946400002FD1
:1009000001D001263443029E049F754366467E4310
:100910000496760034196E0034190094029C019EEE
:100920001C196643751BAE46069465464519059C21
:1009300005956C43594375460891691A0191049EC7
:1009400001465143A41B0491611A009C0791E106E2
:1009500005D061090122114302E072E06EE06109F5
:10096000089D00272C0A2D066918049D7C412A0A3F
:100970002D066918019D6241AC0DAD026D18544100
:10098000079A910D920255196141029A64465843A3
:100990005443069B059A5A43121A131B9A0E9B0145
:1009A0005B187A41010B0005C3185141220A200649
:1009B00044195A419A4200D2491C01204002814206
:1009C00003D315230226F64302E014230326F6433D
:1009D0002020C51AA9401746AF40DA400A432046F6
:1009E0000399D8400914731819055118039A38430C
:1009F000D2075140AC4009D00122944006D30022D6
:100A0000401C5141002C01D1400840001E4A934235
:100A100012D3012203989206904207DB052040077B
:100A200009181A480143C012414004E0032040075E
:100A30000818C10FC907002009B0F0BD0020F10758
:100A4000FAE705180C464C4111486D42A04115D3F8
:100A500094181A465A410E48644290410ED3012020
:100A60004A004005824209D35A00824206D35940C7
:100A7000C90F084AC90700201143DDE700200649D5
:100A8000DAE700000000FF07FE070000FFFFFF7F1E
:100A90000000E0FF0000F07F0000F87F70470000DA
:100AA000004870470C0900207546FFF7F9FFAE4675
:100AB000050069465346C008C000854618B020B5F9
:100AC000FFF75AFB60BC00274908B6460026C0C5A0
:100AD000C0C5C0C5C0C5C0C5C0C5C0C5C0C5403DF6
:100AE00049008D46704710B50446C046C0462046B2
:100AF000FFF731FB10BD000010B5002411E001210B
:100B00004903084800F030F9002808D0601CC4B23E
:100B10000A2002F05FF9012C03DD012010BD002046
:100B2000FCE7ECE70008005010B50120400300F09E
:100B30000FF810BD10B5044601204003844205D1D2
:100B4000FFF7DAFF002801D001F0ECF910BD00003A
:100B500010B50446054840692040002804D00348E9
:100B600044612046FFF7E6FF10BD0000000401408D
:100B700070B50346002200240020DFE001269640E5
:100B80000D6835402C46002C77D04D68022D02D0E0
:100B90004D68122D15D1D508AE001D462035A85937
:100BA0005507EE0E0F25B5400646AE4330465607B4
:100BB000F60E0D69B5402843D508AD001E46203617
:100BC00070514D68012D08D04D68022D05D04D683B
:100BD000112D02D04D68122D18D1986856000325AA
:100BE000B5400646AE4330465600CD68B540284372
:100BF00098605868012595400646AE433046102659
:100C00004D6835402D0995402843586018685600B6
:100C10000325B5400646AE4330460D79AD07AD0F0E
:100C20005600B54028431860D86856000325B540E3
:100C30000646AE43304656008D68B5402843D8601E
:100C4000012636074D683540B54276D13E4D6D6B75
:100C5000012635433C4E75633C4D9608B600A859B5
:100C600095072E0F0F25B5400646AE4330460525A5
:100C70002D07AB4202D100251AE05EE0344DAB42B5
:100C800001D1012514E0334DAB4201D102250FE023
:100C9000314DAB4201D103250AE0304DAB4201D1C9
:100CA000042505E02E4DAB4201D1052500E00625C7
:100CB0009607360FB5402843244D9608B600A85134
:100CC000284D28680546A5432846012636044D6868
:100CD0003540B54202D1054625432846214D2860BE
:100CE00068680546A5432846012676044D683540C8
:100CF000B54202D10546254328461A4D6860A868CA
:100D00000546A5432846012636054D683540B542BF
:100D100002D1054625432846124DA860E8680546DD
:100D2000A5432846012676054D683540B54202D1D7
:100D30000546254328460B4DE860521C0D68D540FA
:100D4000002D00D01AE770BD0010024008000140DD
:100D50000004005000080050000C0050001000502B
:100D6000001C005000040140024613690B40002B98
:100D700001D0012000E000207047002A01D08161ED
:100D800000E0816270470000014800687047000081
:100D90000400002002480068401C014908607047B8
:100DA0000400002010B50648006802218843044969
:100DB0000860032000F006F800F017F8002010BDCE
:100DC0000020024070B5044600F038F906467D2147
:100DD000C900FFF704FA054600F0D4FC00222146C2
:100DE000501E00F00FF8002070BD704700BFC20613
:100DF000D20E01219140024A116000BF70470000ED
:100E000000E100E070B504460D461646294620462E
:100E100001F046F870BD000003480068FF21013171
:100E20000843014908607047007000400249496862
:100E30000143014A51607047007000400748006854
:100E40000221084305490860054800690421084358
:100E50000349086100BF00BF30BF70470070004009
:100E600000ED00E070B504460D46002670480068AD
:100E7000C007C00FA8420ED26D480068400840006D
:100E800028436B49086008460068C007C00FA842A5
:100E900001D0012070BD022120680840022807D13E
:100EA0006448C068F0218843A16808436149C8606C
:100EB0002078C007C00F00284CD06068022809D1F4
:100EC0005C480068012149040840400C002824D1F6
:100ED0000120DFE76068002809D156480068012139
:100EE00049020840400A002817D10120D2E7606873
:100EF000032809D14F480068012149060840400EE7
:100F000000280AD10120C5E74A48006804210840AA
:100F10008008002801D10120BCE74648C06880084D
:100F20008000616808434349C860FFF72DFF06460B
:100F3000606802280FD107E0FFF726FF801B3E49BB
:100F4000884201D90320A5E73A48C0680C2108402F
:100F50000828F1D134E0606803280FD107E0FFF7DB
:100F600013FF801B3449884201D9032092E731489E
:100F7000C0680C2108400C28F1D121E060680028ED
:100F80000FD107E0FFF700FF801B2B49884201D9F2
:100F900003207FE72748C0680C2108400028F1D1D2
:100FA0000EE007E0FFF7F0FE801B2349884201D9DD
:100FB00003206FE71F48C0680C2108400428F1D1C6
:100FC0001B480068C007C00FA8420ED3184800682D
:100FD0004008400028431649086008460068C007DA
:100FE000C00FA84201D0012054E704212068084026
:100FF000042808D10F48C068072109028843E16826
:1010000008430C49C860082120680840082809D115
:101010000848C0680721C90288432169C9000843FC
:101020000449C8600320FFF7CDFE002032E700002E
:1010300000200240001002408813000010B500F0AC
:1010400037F80649C968F02211400909044A515C81
:10105000C840044908600846006810BD00100240FE
:10106000D92E00080000002010B5FFF7E7FF054962
:10107000C968072212021140090A034A515CC8409C
:1010800010BD000000100240D92E000810B5FFF777
:10109000D5FF0549C9680722D2021140C90A034A8F
:1010A000515CC84010BD000000100240D92E00085D
:1010B000F8B50024002600200090002700253248C3
:1010C0004068072149030840470B2F48C0680C219E
:1010D0000840002806D0042809D0082811D00C2880
:1010E00049D110E0781C01218140CD0348E0264819
:1010F000006810210840002801D0244D00E0244D54
:101100003EE0244D3CE02048C0680F21890408409F
:1011100004461D48C0680321890508400646A00C06
:101120001D490C5CB00D461C1748C068012109041C
:10113000084000900098002815D11348006810213D
:101140000840002807D01149614308463146FFF79F
:1011500046F805460EE00E49614308463146FFF762
:101160003EF8054606E00B49614308463146FFF765
:1011700036F8054604E0781C01218140CD0300BF0C
:1011800000BF2846F8BD00000010024000093D00E5
:101190000024F40000127A00D02E0008F8B50446AE
:1011A00000252078C007C00F002870D0FE48C06816
:1011B0000C21084008280BD0FB48C06808400C28C8
:1011C00013D1F948C06801210904084088420CD1B4
:1011D000F5480068012149040840400C00286AD005
:1011E0006068002867D10120F8BD00BF0121090413
:1011F0006068884205D1EC4800680843EA49086005
:101200002EE0052109046068884215D1E64800688F
:10121000012109048843E449086008460068012167
:1012200089040843E0490860084600680121090470
:101230000843DD49086013E0DB4800680121090428
:101240008843D9490860084600680121090408401C
:10125000009000BFD448006889008843D2490860E4
:1012600000BF6068002813D0FFF78EFD054606E03A
:10127000FFF78AFD401B642801D90320B4E7CA4860
:101280000068012149040840400C0028F0D012E019
:10129000FFF77AFD054606E0FFF776FD401B642860
:1012A00001D90320A0E7C048006801214904084093
:1012B000400C0028F0D102212068084002286AD1A1
:1012C000B948C0680C21084004280BD0B648C06853
:1012D00008400C281DD1B448C06801210904084009
:1012E000002816D1B0480068042108408008002872
:1012F00004D0E068012801D0012075E7AA484068C1
:101300001F2109028843216909020843A649486050
:1013100041E0E068002824D0A34800680921884300
:10132000E1680843A0490860FFF72EFD054606E086
:10133000FFF72AFD401B022801D9032054E79A48F1
:1013400000680421084080080028F1D096484068D1
:101350001F21090288432169090208439249486014
:1013600019E09148006809218843E16808438E49E3
:101370000860FFF709FD054606E0FFF705FD401B85
:10138000022801D903202FE787480068042108407C
:1013900080080028F1D1102120680840102872D15F
:1013A0008148C0680C210840002822D17E4800688E
:1013B000012149020840400A002804D0A069002801
:1013C00001D1012010E7784840680721490388438C
:1013D000216A084374494860084640680002000AD0
:1013E000217F09060843704948600320FFF7EAFCA3
:1013F00049E0A06900282CD06B480068FF2101312A
:10140000084369490860FFF7BFFC054606E0FFF79F
:10141000BBFC401B022801D90320E5E662480068B6
:10142000012149020840400A0028F0D05E48406887
:10143000072149038843216A08435B4948600846FD
:1014400040680002000A217F0906084356494860A7
:1014500019E055480068FF2101318843524908606E
:10146000FFF792FC054606E0FFF78EFC401B0228C2
:1014700001D90320B8E64C48006801214902084020
:10148000400A0028F0D1082120680840082839D1F6
:10149000606900281BD0444840300069012108439E
:1014A000414940310861FFF76FFC054606E0FFF750
:1014B0006BFC401B022801D9032095E63A484030D6
:1014C00000690221084040080028F0D01AE03648A0
:1014D0004030006940084000334940310861FFF75F
:1014E00053FC054606E0FFF74FFC401B022801D9DC
:1014F000032079E62C48403000690221084040086A
:101500000028F0D104212068084004287ED100265C
:1015100000272548806B89060840002805D122480D
:10152000806B084320498863012620480068FF211A
:1015300001310840002817D11C48006808431B49A6
:1015400008600127FFF720FC054606E0FFF71CFCBA
:10155000401B642801D9032046E614480068FF2197
:10156000013108400028F1D000BFFF210131A068FF
:10157000884207D10C484030006908430A4940318D
:1015800008613EE0A068002815D107484030006996
:10159000FF21013188430449403108610846006950
:1015A00009158843004903E0001002400070004024
:1015B0004031086125E005210902A068884213D165
:1015C0006D480069FF21013188436B490861084675
:1015D00000690915084368490861084600698915CA
:1015E0000843654908610CE063480069FF21013147
:1015F00088436149086108460069091588435E49C6
:10160000086100BFA068002816D000E03BE0FFF7AB
:10161000BBFB054607E0FFF7B7FB401B5749884275
:1016200001D90320E0E5544800690121490208403E
:10163000400A0028EFD013E0FFF7A6FB054607E0BD
:10164000FFF7A2FB401B4D49884201D90320CBE59F
:1016500049480069012149020840400A0028EFD1A9
:10166000012F05D146480068390288434449086083
:10167000012E07D140484038806B310788433E49EE
:101680004039886300BF606A002872D03A48403809
:10169000C0680C2108400C2869D0606A022848D133
:1016A00035484038006801210906884332494039ED
:1016B0000860FFF769FB054606E0FFF765FB401B86
:1016C000022801D903208FE52B484038006801210A
:1016D00049060840400E0028EFD1216BE06A08431C
:1016E000A16A084324494039C968FD221204914384
:1016F000084321494039C8600846006801210906AD
:1017000008431D4940390860FFF73EFB054606E0E7
:10171000FFF73AFB401B022801D9032064E5164875
:1017200040380068012149060840400E0028EFD0EB
:101730001FE01148403800680121090688430E491E
:1017400040390860FFF720FB054606E0FFF71CFB69
:10175000401B022801D9032046E5074840380068AD
:10176000012149060840400E0028EFD101E0012088
:101770003AE5002038E500004010024088130000E0
:101780000070004070B504462546681E094988422D
:1017900001D901200CE0681E074948610321081F98
:1017A00000F07EFB002004498861072008610020CA
:1017B00070BD0000FFFFFF0000E000E010B5044630
:1017C000002C01D1012010BD3520005D002805D17D
:1017D000002134200155204600F00CF8022135206C
:1017E0000155211D206800F05FFC012135200155C5
:1017F0000020E8E77047014602223520425408687D
:101800000068012210430A6810600122352042540A
:101810000020704701460868C068012210430A682A
:10182000D06008680068012210430A681060002038
:1018300070470000014602223520425400BF08686C
:10184000006A084A1040002805D10868006840086E
:1018500040000A68106000BF012235204254002079
:101860007047000011110000704710B50446206851
:10187000006902210840400800281CD02068C06888
:1018800008404008002816D0481F21680861012040
:101890002075206880698007800F002803D02046CB
:1018A000FFF7E2FF05E0204600F09DF8204600F03B
:1018B0009BF80020207520680069042108408008FA
:1018C00000281DD02068C06808408008002817D074
:1018D000C8432168086102202075206880690321BF
:1018E00009020840002803D02046FFF7BDFF05E0AD
:1018F000204600F078F8204600F076F800202075A9
:101900002068006908210840C00800281CD0206811
:10191000C0680840C008002816D0C8432168086184
:10192000042020752068C0698007800F002803D03C
:101930002046FFF799FF05E0204600F054F82046C6
:1019400000F052F80020207520680069102108403E
:10195000000900281DD02068C06808400009002840
:1019600017D0C84321680861082020752068C06925
:10197000032109020840002803D02046FFF774FF26
:1019800005E0204600F02FF8204600F02DF800205A
:10199000207520680069C007C00F012148404840F9
:1019A00000280CD02068C068084048404840002803
:1019B00005D0C81E21680861204600F017F820688D
:1019C000006940210840800900280BD02068C068C9
:1019D00008408009002805D0C843216808612046D6
:1019E00000F016F810BD70477047000010B50446AF
:1019F000054800880121C9030843034908800348BA
:101A0000FFF718FF10BD00000E000020D4080020D2
:101A100070477047704710B504462068C069C0071A
:101A2000C00F00280FD020680068FF210131084056
:101A3000002808D0012021680862E06E01210843D7
:101A4000E066692001552068C0690221084000282D
:101A50000FD020688068C007C00F002809D002207E
:101A600021680862E06E04210843E06601216920D4
:101A700001552068C0690421084000280FD0206863
:101A80008068C007C00F002809D0042021680862C0
:101A9000E06E02210843E0660121692001552068BB
:101AA000C0690821084000280FD020688068C0075E
:101AB000C00F002809D0082021680862E06E0821C4
:101AC0000843E066012169200155E06E002802D03C
:101AD0002046FFF79FFF2068C069012109050840E3
:101AE00000280ED02068806889000840002808D0AF
:101AF0008810216808620121692001552046FFF7FE
:101B000088FF2068C06920210840002807D020688D
:101B100000680840002802D0204600F02DFC206814
:101B2000C06980210840002807D02068006808406C
:101B3000002802D0204600F063FE2068C0694021E2
:101B40000840002807D0206800680840002802D01C
:101B5000204600F0F9FB10BD10B50446002C01D161
:101B6000012010BDA069002800D000E000BF69205E
:101B7000005D002805D1002168200155204600F0B5
:101B800029F80221692001552068006840084000BA
:101B900021680860204600F049FC606A002802D0F5
:101BA000204600F029FB206840680921C9028843CB
:101BB00021684860206880682A21884321688860FD
:101BC000206800680121084321680860204600F071
:101BD0008BFBC6E770470000FFB581B004460D4699
:101BE00016466920005D012803D06920005D122897
:101BF00075D1002D01D0002E02D1012005B0F0BD1D
:101C000000BF6820005D012801D10220F6E7012114
:101C10006820015500BF0020E0666920005D1228A1
:101C200003D132216920015502E0222169200155AA
:101C3000582006535A20065300BF01210903A0680B
:101C400088420AD12069002803D135495C2001531C
:101C500020E0FF215C2001531CE0A06800280AD18D
:101C60002069002803D1FF215C20015312E07F216D
:101C70005C2001530EE001210907A068884209D1C8
:101C80002069002803D17F215C20015302E03F211D
:101C90005C20015300BF5C20005B009027E05A20CD
:101CA000005B401E81B25A200153002220212046B1
:101CB000049B00F0E2FD002801D003209EE70121F3
:101CC0000903A06888420BD12069002808D12F465B
:101CD0002068406A009908403880AD1C07E01CE08D
:101CE0002068406A0099C9B2084028706D1C5A20CB
:101CF000005B0028D3DC6920005D322803D112216B
:101D00006920015502E001216920015500BF002131
:101D10006820015500BF002070E702206EE7000038
:101D2000FF0100007047704710B50446002C01D138
:101D3000012010BD4120005D002805D10021402078
:101D40000155204600F026F8022141200155206867
:101D500000684008400021680860204600F08CFEC2
:101D6000012800D1E5E72068406801218903884304
:101D700021684860206880682A218843216888603B
:101D8000206800680121084321680860204600F0AF
:101D90003DFECEE710B586B004461B492068884258
:101DA00030D100BF1948C06A042108431749C862EE
:101DB0000846C06A04210840009000BF00BF1348D5
:101DC000806B49040843114988630815019002207B
:101DD000029001200390022004900620059001A9A2
:101DE0000B48FEF7C5FE0120C002019001A908487A
:101DF000FEF7BEFE0E20FEF7F9FF032211460E206D
:101E0000FFF700F806B010BD004C00400010024083
:101E10000008005000BFFEE710B5044609480078EE
:101E2000844205D1012204210748FEF7A6FF08E0FD
:101E300006480078844204D1002204210248FEF7BB
:101E40009CFF10BD0C000020000C00500D00002075
:101E500000B587B000BF0F48C06A082108430D498C
:101E6000C8620846C06A08210840019000BF00BF50
:101E7000042002900120039004900320059002A901
:101E80000548FEF775FE002204210348FEF775FFA2
:101E900007B000BD00100240000C00507047000069
:101EA00010B5002819DA1A4A03071B0F083B9B08D4
:101EB0009B00D2588307DC0EFF23A3409A438B0775
:101EC0001B0E8407E40EA3401A43114B0407240F92
:101ED000083CA408A4001A5118E00E4A03231B0270
:101EE000D21883089B00D2588307DC0EFF23A3403F
:101EF0009A438B071B0E8407E40EA3401A43054B3D
:101F0000032424021B198408A4001A5110BD0000E8
:101F10001CED00E000E100E07047704710B5FEF7EF
:101F200039FF10BD10B50020C0430D4908620846B6
:101F3000806B090408430A498863094840300069F6
:101F40000121C9040843064940310861FEF764FFD6
:101F500003200002FEF76AFFFEF770FF10BD0000CD
:101F60000010024000B593B014210EA8FEF735F919
:101F7000342101A8FEF731F91848806B01210907C7
:101F8000084316498863164800680321C90288433C
:101F90000121C90240181249086002200190002066
:101FA00002900120049002200A9000210B9141042C
:101FB0000C9141050D911020059001A8FFF7EEF856
:101FC0000F200E9003200F9000201090119012907F
:101FD00001210EA8FEF746FF13B000BD001002401D
:101FE0000070004015480068FF2101310843134983
:101FF00008600846C068124908401049C860084691
:102000000068104908400D4908600846806840088B
:102010004000886008460068012189048843074918
:1020200008600846C068FD21090488430349C86068
:1020300000200861C803044988607047001002400E
:102040000C40FF88F6FFF6FE00ED00E010B50248F8
:10205000FFF70BFC10BD0000D408002070B505464A
:102060000C460E48806B202108430C4988630C48BD
:102070000C4908600846446000218160C560016128
:10208000FFF79CFB0748FFF7C5FB01220021122048
:10209000FEF7B8FE1220FEF7A9FE70BD0010024048
:1020A00000140040D408002010B50022026801236B
:1020B0009B07984208D01A4B984205D0194B98427A
:1020C00002D0194B984201D1012300E00023002BDC
:1020D00005D070241346A3431A464B681A430123C4
:1020E0009B07984208D00E4B984205D00D4B984262
:1020F00002D00D4B984201D1012300E00023002BB8
:1021000006D0032424021346A3431A46CB681A437D
:1021100002608B68C3620B6883620123436110BD58
:1021200000040040000801400014014010B586B0D2
:10213000044600BF2A48C06A012108432849C862F2
:102140000846C06AC007C00F009000BF00BF084625
:10215000406B0121890308432149486321482249F2
:1021600008600846446000218160C16001618161AE
:102170000C214161FFF7F0FC032040020190022096
:10218000029001200390022004900420059001A9F0
:1021900005200007FEF7ECFC1348006800684021AA
:1021A00088431149096808600F48006800682021C9
:1021B00008430D49096808601B20FEF717FE03223B
:1021C00002211B20FEF71EFE08496320FFF746FF91
:1021D0000748FFF72FFB00200649088006B010BD16
:1021E000001002400038014064080020272300004E
:1021F000D40800200E000020818CC907C90F0029D7
:1022000008D001684968012252049143826A11434F
:10221000026851600222416A1140002907D001681A
:102220004968D2039143C26A114302685160042293
:10223000416A1140002907D001684968120491439E
:10224000026B1143026851600822416A1140002963
:1022500007D00168496812039143426B1143026839
:1022600051601022416A1140002907D00168896835
:1022700012029143826B1143026891602022416AED
:102280001140002907D00168896812029143C26B8E
:102290001143026891604022416A1140002915D023
:1022A0000168496892039143026C114302685160CE
:1022B00001221205016C914208D10168496803228C
:1022C00052059143426C1143026851608022416A79
:1022D0001140002907D00168496812039143826CBC
:1022E000114302685160704710B5044620680068C9
:1022F00008210840082809D1124B002281042046F9
:1023000000F0BBFA002801D0032010BD206800684F
:1023100004210840042809D10A4B00220105204667
:1023200000F0ABFA002801D00320EEE700BF002147
:102330006820015500BF0020E06601216920015599
:102340000020E2E7F055000010B504462068006860
:1023500040218843216808606920005D322803D14C
:1023600022216920015502E0012169200155204602
:10237000FFF7D9FC002010BD70B504465C20065B59
:102380006920005D222803D06920005D32284BD1EE
:1023900001210903A06888420BD12069002808D1D7
:1023A000656D2068406A30402880606D801C6065E3
:1023B00007E02068406AF1B20840626D511C616517
:1023C00010705A20005B401E81B25A200153002930
:1023D00028D100BF2068C069202108400028F9D119
:1023E000206800688843216808606920005D322801
:1023F00003D11221692001550FE020680068FF21F8
:1024000001318843216808602068806840084000E6
:10241000216888600121692001552046FFF782FC70
:10242000002070BD0020FCE70220FAE7F0B58BB079
:10243000044600260025002700200A90E249206873
:10244000884201D1012000E00020002800D000E0F7
:1024500000BF2169A068084361690843E169084336
:10246000064620680068D949084030432168086062
:1024700020684068032109038843E1680843216814
:102480004860A669D0492068884201D1012000E057
:102490000020002801D1206A0643206880680B21B3
:1024A0000902884330432168886000BFC84920681A
:1024B000884216D1C748C0688007800F002806D020
:1024C000012808D0022804D0032808D105E00125FE
:1024D00006E0022504E0042502E0082500E000BF34
:1024E00038E0BD492068884216D1BA48C0680C213E
:1024F0000840002806D0042808D0082804D00C285A
:1025000008D105E0002506E0022504E0042502E0EC
:10251000082500E000BF1DE0AB492068884219D1C2
:10252000AC48C068032189020840002808D0012176
:102530008902401A08D0401A04D0401A08D105E098
:10254000002506E0022504E0042502E0082500E05D
:1025500000BF00BF00BF9C492068884201D1012014
:1025600000E0002000287AD0002D06D0022D25D0D2
:10257000042D53D0082D73D173E0626810460021FA
:10258000FEF764F907910690FEF76EFD00210191B8
:102590000090FEF75BF90022904B03910290FEF74A
:1025A00059F905910490079B069AFDF7C9FE099118
:1025B0000890FEF7E9F82168C86067E08548403870
:1025C0000068102108400009002813D062681046F6
:1025D0000021FEF73BF902460B46079106900020CA
:1025E0007F49FDF7ADFE09910890FEF7CDF821680F
:1025F000C86012E0626810460021FEF727F9024623
:102600000B460791069000207649FDF799FE099147
:102610000890FEF7B9F82168C86037E06268104694
:102620000021FEF713F907910690FEF741FD002106
:1026300001910090FEF70AF90022684B0391029085
:10264000FEF708F905910490079B069AFDF778FEBE
:1026500009910890FEF798F82168C86016E016E026
:1026600013E0626810460021FEF7F0F802460B46C0
:102670000791069000205C49FDF762FE09910890E1
:10268000FEF782F82168C86000E000BF9AE00121EF
:10269000C903E069884251D12B0000F06FFB0906A5
:1026A000101A42304242423A4200FEF7DDFC40003E
:1026B00009906168FDF793FD80B20A9032E0FEF761
:1026C000E5FC400009906168FDF789FD80B20A9041
:1026D00028E04048403800681021084000090028E0
:1026E00006D042486168FDF77AFD80B20A9005E0A5
:1026F0003F486168FDF773FD80B20A9012E0FEF773
:10270000D7FC400009906168FDF769FD80B20A902E
:1027100008E0012000046168FDF761FD80B20A90C5
:1027200000E000BF00BF33490A98084007460A98F6
:102730000007400F07432068C76043E02B0000F00C
:102740001DFB09060F183F2E3F3F3F373F00FEF7A6
:102750008BFC09906168FDF742FD2168C86030E09C
:10276000FEF794FC09906168FDF739FD2168C860A7
:1027700027E0184840380068102108400009002868
:1027800006D01D486168FDF72AFD2168C86005E094
:102790001A486168FDF723FD2168C86011E0FEF763
:1027A00087FC09906168FDF71AFD2168C86008E0A0
:1027B0000120C0036168FDF712FD2168C86000E0D8
:1027C00000BF00BF0BB0F0BD00480040F369FFEF51
:1027D00000380140401002400044004000007040BA
:1027E0008084CE418084EE410000604100127A0076
:1027F0000048E801F0FF000000093D000024F4005B
:1028000001466920405C122803D06920405C3228D0
:1028100031D15220405A00280DD108680068802329
:1028200098430B68186008680068402318430B68D9
:1028300018600020704701231B03886898420CD160
:102840000869002809D1CA6C1088C005C00D0B6842
:102850009862C86C801CC86405E0CB6C581CC864C6
:1028600018780B6898625220405A401E83B252205A
:1028700043520020DEE70220DCE7FFB581B00446CA
:102880000E461D460027FEF77FFA074603980028EC
:1028900039D12DE0681C00282AD0002D04D0FEF785
:1028A00073FAC01BA84223D920680068802188439E
:1028B000216808602068006820218843216808603A
:1028C00020680068FF210131884321680860206882
:1028D0008068400840002168886001216920015516
:1028E00000BF00216820015500BF032005B0F0BDE6
:1028F0002068C0693040B04201D1012000E00020D2
:102900000028C7D037E02CE0681C002829D0002D13
:1029100004D0FEF739FAC01BA84222D9206800680B
:10292000802188432168086020680068202188434E
:102930002168086020680068FF2101318843216810
:102940000860206880684008400021688860012194
:102950006920015500BF00216820015500BF0320F8
:10296000C4E72068C0693040B04201D1012000E0D6
:1029700000200028C8D10020B8E7000008B51E4894
:102980000068C06920210840400900282FD07D231D
:10299000DB00012269461848FFF71EF91748008836
:1029A0000121C9030840002821D114480088FF21D3
:1029B0009131884214DA0020114948620F4800889A
:1029C000002802D10F48FEF716FF684601780B4831
:1029D00002880088401C094B18800B48815406E08F
:1029E000064800880121C9030843044908800248B9
:1029F000FFF711F808BD0000640800200E00002059
:102A000000140040D4080020D406002010B504466D
:102A100000206064206800680821084008280DD163
:102A20007D23DB0000228104204600F0E3F800282B
:102A300004D0032141200155032010BD2068006807
:102A40000421084004280DD17D23DB00002201056C
:102A5000204600F0CFF8002804D003214120015582
:102A60000320EAE700BF00214020015500BF0121FB
:102A7000412001550020E0E7FEB504460025002076
:102A800002900190002600272169A068084361692F
:102A900008430121C90308430546206800684F49DF
:102AA00008402843216808600125ED02E169A0691A
:102AB00008430543E168206A0843054320684068ED
:102AC0003F210902884328432168486000BF4449E8
:102AD000206888421AD14348C0688007800F0028C8
:102AE00006D001280AD0022805D003280CD108E01E
:102AF0000120029009E00220029006E004200290EA
:102B000003E00820029000E000BF1EE03649206884
:102B100088421AD13348C0680C210840002806D0EA
:102B200004280AD0082805D00C280CD108E0002081
:102B3000029009E00220029006E00420029003E0E7
:102B40000820029000E000BF00BF00BF02980428E8
:102B500024D006DC002809D0012810D002282DD16D
:102B600016E0082823D0102828D128E0FEF77CFAA8
:102B7000400000906168FDF732FB87B222E0FEF76B
:102B800085FA400000906168FDF729FB87B219E0E3
:102B900016486168FDF723FB87B213E0FEF788FA59
:102BA000400000906168FDF71AFB87B20AE001203F
:102BB00000046168FDF713FB87B203E000BF01204A
:102BC000019000BF00BF0A48384006463807400F52
:102BD00006432068C6600198FEBD0000F369FFEF60
:102BE0000038014040100240004400400048E80125
:102BF000F0FF0000FFB581B004460E461D460027D9
:102C0000FEF7C2F807460398002839D12DE0681C6A
:102C100000282AD0002D04D0FEF7B6F8C01BA84229
:102C200023D92068006880218843216808602068D3
:102C30000068202188432168086020680068FF211F
:102C4000013188432168086020688068400840009E
:102C50002168886001214120015500BF00214020EA
:102C6000015500BF032005B0F0BD2068C0693040A9
:102C7000B04201D1012000E000200028C7D037E099
:102C80002CE0681C002829D0002D04D0FEF77CF829
:102C9000C01BA84222D9206800688021884321688F
:102CA0000860206800682021884321680860206847
:102CB0000068FF210131884321680860206880682E
:102CC000400840002168886001214120015500BF73
:102CD00000214020015500BF0320C4E72068C069DF
:102CE0003040B04201D1012000E000200028C8D1CE
:102CF0000020B8E700B587B000BF1D48C06A0421B6
:102D000008431B49C8620846C06A04210840019074
:102D100000BF00BF00BF1648C06A01210843144924
:102D2000C8620846C06AC007C00F019000BF00BF5C
:102D30000120400302900F48039002200490059068
:102D400002A90D48FDF714FF012002900220049013
:102D5000059002A905200007FDF70AFF03220021C4
:102D60000720FEF74FF80720FEF740F807B000BD38
:102D700000100240000011100008005030B47446EA
:102D8000641E2578641CAB4204D3635D5B00E318CA
:102D900030BC18471D46F8E700BF70470A4909696B
:102DA00004229143084A1161C217520F12185205AA
:102DB000120E064B1A707D21C90041434903090CCC
:102DC000034A11807047000000E000E00800002086
:102DD0000A00002070B50646872189003046FDF7BD
:102DE00008FAC4B2872189003046FDF702FA8DB295
:102DF00005E08720800000F00BF8601EC4B2002CB4
:102E0000F7D1002D02D0284600F002F870BD000076
:102E100001460D4A12884A430C4B5A6100229A61BE
:102E200001221A6100BF094A1069C207D20F002AA5
:102E300004D0012212040240002AF4D00022034BE5
:102E40001A619A61704700000A00002000E000E06B
:102E5000FDF7A8FFFFF786F82020FFF79FFFE1208E
:102E6000400200F019F8E1204002FFF75FF9FEF799
:102E7000EFFF08480078FEF7CFFFFFF73BFF052084
:102E8000FFF7A8FFFDF738FE002801D1FFF74AF849
:102E900000BFFEE70C00002010B5044606480749B5
:102EA00008600846446000218160C16001610C2116
:102EB0004161FEF739FF10BD004C0040D8000020F2
:102EC00000000000000000000102030406070809DA
:102ED000030406080C101820300000000001020353
:102EE00004010203040607080980807F7E7D7C7B45
:102EF0007A7978777676757473727171706F6E6E99
:102F00006D6C6C6B6A6A6968686766666564646341
:102F10006362616160605F5F5E5E5D5D5C5C5B5BC8
:102F20005A5A595958585757565655555554545337
:102F30005352525251515050504F4F4F4E4E4D4D93
:102F40004D4C4C4C4B4B4B4A4A4A494949484848DE
:102F5000474747474646464545454444444443431E
:102F60004343424242424141410000008C2F00084D
:102F70000000002010000000040100089C2F000841
:102F800010000020600F00002001000880841E0057
:0C2F900000000000000000000100000034
:04000005080000C12E
:00000001FF
